:0400000051EF00F0CC
:10000800FACF4DF0FBCF4EF0E9CF4FF065ED09F098
:10001800D8CF36F0E8CF37F0E0CF38F0FACF39F064
:10002800FBCF3AF0E9CF3BF0EACF3CF0E1CF3DF02F
:10003800E2CF3EF0D9CF3FF0DACF40F0F3CF41F036
:10004800F4CF42F0F6CF43F0F7CF44F0F8CF45F0C5
:10005800F5CF46F046C0F5FF45C0F8FF44C0F7FFAE
:1000680043C0F6FF42C0F4FF41C0F3FF40C0DAFFCF
:100078003FC0D9FF3EC0E2FF3DC0E1FF3CC0EAFF00
:100088003BC0E9FF3AC0FBFF39C0FAFF38C0E0FFC8
:0E00980037C0E8FF36C0D8FF100047EF0EF06B
:10100000001B2B1F3300000E0001996F000E986F1C
:10101000000199BF0AD00001995106E1040E0001B8
:10102000985DD8B051D101D04FD1000E0001976F1B
:10103000000E966F000197BF0AD00001975106E19C
:101040000A0E0001965DD8B0D3D001D0D1D00001F6
:10105000965100019711D8A431D098C080F099C062
:1010600081F0000E0001836F140E826F2BEC0EF0E6
:101070008BC08EF08CC08FF00001805100018E2754
:101080000001815100018F23D89000019635D96E5F
:1010900000019735DA6E00018E51D92600018F517B
:1010A000DA22DECF90F0DDCF91F090C092F091C0C7
:1010B00093F092C094F093C095F08FD098C080F0D8
:1010C00099C081F0000E0001836F140E826F2BEC2B
:1010D0000EF08BC08EF08CC08FF0000180510001AB
:1010E0008E270001815100018F23D8900001963591
:1010F000D96E00019735DA6E00018E51D9260001B4
:101100008F51DA22DECF86F0DDCF87F092C088F0F3
:1011100093C089F061EC0EF086C092F087C093F026
:1011200098C080F099C081F0000E0001836F140E0A
:10113000826F2BEC0EF08BC08EF08CC08FF0000114
:10114000805100018E270001815100018F23D8902A
:1011500000019635D96E00019735DA6E00018E5187
:10116000D92600018F51DA22DECF86F0DDCF87F05D
:1011700090C088F091C089F07BEC0EF086C090F0B2
:1011800087C091F098C080F099C081F0000E0001F6
:10119000836F140E826F2BEC0EF08BC08EF08CC020
:1011A0008FF00001805100018E2700018151000164
:1011B0008F23D89000019635D96E00019735DA6EED
:1011C00000018E51D92600018F51DA22DE50000134
:1011D0009427DD500001952300D00001964B972BFA
:1011E000000197BF34D70001975102E129D700D001
:1011F000000190510001922500018E6F0001915174
:101200000001932100018F6F00018E1F8F1F8E4BF5
:101210008F2B0001945100018E250001946F000175
:10122000955100018F210001956F00018D05D8A413
:101230000CD094C080F095C081F0000E0001836F47
:10124000080E826F3AEC0DF022D0D890000198354C
:10125000D96E00019935DA6E010ED926000EDA2218
:10126000DECF8EF0DDCF8FF094C080F095C081F09E
:10127000000E0001836F080E826F3AEC0DF0000142
:101280008E510001802700018F5100018123D890E9
:1012900000019835D96E00019935DA6E090ED9260C
:1012A000000EDA22000180C0DEFF000181C0DDFFF8
:1012B00000D00001984B992B000199BFB6D60001D0
:1012C000995102E1ABD600D012000600EACF50F0EF
:1012D000E1CF51F0E2CF52F0D9CF53F0DACF54F052
:1012E000F3CF55F0F4CF56F0F6CF57F0F7CF58F0D4
:1012F000F8CF59F0F5CF5AF0F2A40ED118BE08D1AC
:10130000185004E1030E175CD8A002D1A9EC0AF032
:101310005D505B18D8B402D0010E01D0000E2F6EC4
:1013200000D02F04D8A426D01D501E10D8A422D03F
:101330000EBE06D00E5012E1FA0E0D5CD8B00ED0E3
:1013400010BE06D010500AE1FA0E0F5CD8B006D0DD
:101350003404010E146E5E0E04D005D0000E146E1F
:10136000010E136E00D0C6EC0EF05BC05DF0000EF7
:101370002F6EC2D01EBE29D01E5003E11D04D8A07E
:1013800024D00EBE06D00E5014E1640E0D5CD8B011
:1013900010D010BE06D010500CE1640E0F5CD8B017
:1013A00008D03304D8A405D0000E1E6E050E1D6EA5
:1013B00000D035500DEC0EF0000E226E000E216EA6
:1013C000000E206E000E1F6E97D028BE05D028504C
:1013D00013E12704D8B010D02ABE05D02A500CE162
:1013E0002904D8B009D014BE2CD0145005E1130440
:1013F000D8B002D026D000D0A2EC0DF028BE0ED07E
:10140000285003E12704D8A009D0000E476E010E32
:1014100047EC0CF02706D8A028066ED02ABE0ED0C6
:101420002A5003E12904D8A009D0000E476E000E0F
:1014300047EC0CF02906D8A02A065ED0C6EC0EF0C8
:101440005BD013501410D8A457D03250D8A454D025
:101450005B50D8A408D0000E4B6E000E4A6E000EF2
:1014600095EC0EF049D0020E5B18D8A403D0DBEC4B
:101470000EF042D0030E5B18D8A408D0000E4B6EBD
:10148000010E4A6E000E95EC0EF036D0040E5B187D
:10149000D8A403D0DBEC0EF02FD0050E5B18D8A437
:1014A00008D0000E4B6E000E4A6E000E95EC0EF04A
:1014B00023D0060E5B18D8A408D0000E4B6E000E89
:1014C0004A6E010E95EC0EF017D0070E5B18D8A4EB
:1014D00008D0000E4B6E000E4A6E000E95EC0EF01A
:1014E0000BD05B04D8A408D0000E4B6E000E4A6EE1
:1014F000000E95EC0EF000D031C047F03050FAEC01
:101500000EF007EC0FF0000E186E000E176E00D0F4
:10151000174A182AF29400D05AC0F5FF59C0F8FFB4
:1015200058C0F7FF57C0F6FF56C0F4FF55C0F3FF91
:1015300054C0DAFF53C0D9FF52C0E2FF51C0E1FFEF
:1015400050C0EAFF4FC0E9FF4EC0FBFF4DC0FAFF9D
:1015500011000ABE06D00A501EE1780E095CD8B010
:101560001AD00CBE06D00C5016E1780E0B5CD8B029
:1015700012D00EBE06D02C0E0D5C010E0E58D8B047
:101580000AD010BE06D02C0E0F5C010E1058D8B039
:1015900002D0000EE9D00ABE20D00A5004E1790E34
:1015A000095CD8A01AD00CBE18D00C5004E1790EFA
:1015B0000B5CD8A012D00EBE06D02C0E0D5C010E16
:1015C0000E58D8B00AD010BE06D02C0E0F5C010EFB
:1015D0001058D8B002D0020EC7D00ABE1FD00A5091
:1015E00004E1790E095CD8A019D00CBE17D00C50BC
:1015F00004E1790E0B5CD8A011D00EBE0FD02D0ED9
:101600000D5C010E0E58D8B010BE08D02D0E0F5C28
:10161000010E1058D8A002D0030EA6D00ABE20D0CA
:101620000A5004E1790E095CD8A01AD00CBE06D08D
:101630000C5016E1780E0B5CD8B012D00EBE06D05E
:101640002C0E0D5C010E0E58D8B00AD010BE06D07C
:101650002C0E0F5C010E1058D8B002D0040E84D0AE
:101660000ABE06D00A501EE1780E095CD8B01AD026
:101670000CBE18D00C5004E1790E0B5CD8A012D02F
:101680000EBE06D02C0E0D5C010E0E58D8B00AD03E
:1016900010BE06D02C0E0F5C010E1058D8B002D030
:1016A000050E62D00ABE1FD00A5004E1790E095C13
:1016B000D8A019D00CBE06D00C5015E1780E0B5CEA
:1016C000D8B011D00EBE0FD02D0E0D5C010E0E58ED
:1016D000D8B010BE08D02D0E0F5C010E1058D8A047
:1016E00002D0060E41D00ABE06D00A501DE1780E87
:1016F000095CD8B019D00CBE17D00C5004E1790E9B
:101700000B5CD8A011D00EBE0FD02D0E0D5C010EBB
:101710000E58D8B010BE08D02D0E0F5C010E105818
:10172000D8A002D0070E20D00ABE06D00A501EE173
:10173000780E095CD8B01AD00CBE06D00C5016E159
:10174000780E0B5CD8B012D00EBE10D02D0E0D5CF2
:10175000010E0E58D8B010BE09D02D0E0F5C010E30
:101760001058D8A003D0010E5B6E00D0120000010B
:10177000F06F000E0001F26F000EF16F0001F2BF7A
:101780000AD00001F25178E10A0E0001F15DD8B0F3
:1017900073D001D071D0000E0001F46F000EF36F12
:1017A0000001F4BF0AD00001F45161E1040E000110
:1017B000F35DD8B05CD001D05AD0010E0001F32502
:1017C000F66E100EF421F76E0800F5CFC2FFC2824C
:1017D00000D0C2B2FED7C3CF9AF0060E00019B6FB5
:1017E0000001D8909A3300019B2FFAD700019A513B
:1017F000C4CF9CF000019D6B0001D8909C379D37B1
:101800000001D8909C379D3700019C27000E9D2336
:10181000F3C080F0F4C081F0000E0001836F140E5D
:10182000826F2BEC0EF0A00E00019E6F000E0001E7
:101830009F6F0001805100019E270001815100012E
:101840009F23D8900001F135D96E0001F235DA6E90
:1018500000019E51D92600019F51DA229CC0DEFF73
:101860009DC0DDFF0001F34BF42B9AD700D000019F
:10187000F14BF22B83D700D0A00E00018B6F000E2E
:1018800000018C6FF0C08DF003EC08F01200486E80
:101890004850D8A41BD04704D8B40BD017D009D0D7
:1018A000020E04D0040E02D03ED039D0306E68D083
:1018B00036D03050010AD8B4F3D7030AD8B4F2D7DF
:1018C000060AD8B430D00C0A2AD05AD04804D8A47A
:1018D0001DD04704D8B40BD019D009D0080E40D081
:1018E000010E3ED0020E3CD0040E3AD0F7D7315054
:1018F000010AD8B4F3D7030AD8B4F2D7060AD8B489
:10190000F1D70C0AD8B4F0D7E9D73AD04850D8A4C8
:101910001BD04750D8B409D017D007D004D0010E3F
:10192000C5D7BED7BFD7080EC1D73050010AD8B42B
:10193000FAD7030AD8B4F3D7060AD8B4B1D70C0A39
:10194000D8B4B0D7F0D71CD04804D8A419D0475089
:10195000D8B409D015D007D0C5D7C6D7BFD7C0D700
:10196000316E0ED0BDD73150010AD8B4BBD7030AAF
:10197000D8B4BAD7060AD8B4B1D70C0AB1D700D0B8
:10198000120009500B240001806F0A500C20000146
:10199000816F000E0001836F020E826F3AEC0DF032
:1019A00080C08AF081C08BF00F500D240001806F41
:1019B00010500E200001816F000E0001836F020E97
:1019C000826F3AEC0DF080C08CF081C08DF009C0C0
:1019D00088F00AC089F00001881F891F884B892B75
:1019E00000018A5100018825016E00018B51000120
:1019F0008921026E20EE0BF0DECF88F0DDCF89F07A
:101A00000001881F891F884B892B00018A51000122
:101A10008825036E00018B5100018921046E20EEA0
:101A20000DF0DECF88F0DDCF89F00001881F891F1F
:101A3000884B892B00018C5100018825056E00011F
:101A40008D5100018921066E20EE0FF0DECF88F067
:101A5000DDCF89F00001881F891F884B892B000189
:101A60008C5100018825076E00018D5100018921EC
:101A7000086E1200000E0001856F000183AF09D0CF
:101A80000001826D831FD8B0832B010E0001856F8A
:101A900000D0000181AF09D00001806D811FD8B056
:101AA000812B010E0001851B00D0000E0001876F05
:101AB000000E866F0001825100018311D8B431D02D
:101AC000010E0001846F07D00001D8908237833760
:101AD0000001842B00D0000183BF02D0F5D700D0D5
:101AE0000001D89086378737000182510001805D60
:101AF0000001835100018159D8A00BD0000182510F
:101B00000001805F000183510001815B000186813B
:101B100000D00001D890833382330001842FE0D7B6
:101B200000D0000185510001D8B406D00001866DB7
:101B3000871FD8B0872B00D086C080F087C081F087
:101B400000D012000EBE0ED00E5004E1960E0D5CB9
:101B5000D8A008D010BE06D010501EE1960E0F5C23
:101B6000D8B01AD00ABE0BD0910E095C010E0A58EB
:101B7000D8A005D0000E2A6E1E0E296E0DD00CBE08
:101B80000BD0910E0B5C010E0C58D8A005D0000EA6
:101B9000286E1E0E276E00D01200000E0001846F0A
:101BA000000E836F000E0001846F000E836F0CD057
:101BB0000B0E0001826F620EE82EFED7822FFCD73B
:101BC00000D00001834B842B000180510001835D14
:101BD0000001815100018459D8A0EAD71200000EFB
:101BE000946E968296849382938093869384010E5A
:101BF000C16E0A0EC06E2B0EC26EC40ED56EF40EF0
:101C0000F16E200EF26EEBEC0EF0030E0001816F10
:101C1000E80E806FCDEC0DF01200496E4950D8A44B
:101C20000BD0000E476E010E47EC0CF0010E476E14
:101C3000000E47EC0CF00BD0000E476E000E47EC88
:101C40000CF0010E476E010E47EC0CF000D01D06A3
:101C5000D8A01E0612000001805100018203F3CFBC
:101C600084F0F4CF85F00001805100018303F3502C
:101C7000000185270001815100018203F35000011A
:101C8000852784C080F085C081F000D0120000EE6E
:101C900001F0350EEE6AE806FDE1160EF66E1E0E38
:101CA000F76E000EF86E0900F5CF5BF00900F5CF76
:101CB0005CF00900F5CF5DF0000EF86E0001AFEFAB
:101CC0000EF0000186510001885D00018951800AF3
:101CD00000018A6F00018751800A00018A59D8B03B
:101CE00005D088C086F089C087F004D086C086F011
:101CF00087C087F01200000186510001885D000155
:101D00008951800A00018A6F00018751800A000111
:101D10008A59D8B005D086C086F087C087F004D035
:101D200088C086F089C087F012004C6E4A044B10C0
:101D3000D8A406D0010E1E6E540E1D6E010E05D0E5
:101D4000000E1E6EAA0E1D6E000E336E00D04CC02B
:101D500035F0010E346E35500DEC0EF0120002EC31
:101D60000FF0EFEC0DF0010EB7EC0BF0010EB7EC3D
:101D70000BF0010EB7EC0BF0C1EC0CF0F28E00D0C2
:101D8000000EB7EC0BF0FCD751EF00F0000E476EE1
:101D9000010E47EC0CF0000E476E000E47EC0CF005
:101DA0001306D8A0140613501410D8A403D0000EA4
:101DB000346E00D0120013501410D8B404D01304A1
:101DC0001410D8A407D0000E146E010E136EC6ECCA
:101DD0000EF000D01200270EC26EC28200D0C2B236
:101DE000FED7800EC36402D0000E01D0010E326E09
:101DF00000D01200486E4738F00B4824496E495015
:101E000000D012007C0ED36E4F0E9B6E1200476EF8
:0A1E100047C08BFF1200020A020017
:020000040020DA
:08000000FFFFFFFFFFFFFFFF00
:020000040030CA
:0E000000FF081F1EFF8185FF0FC00FE00F409D
:00000001FF
