:0400000051EF00F0CC
:10000800FACF4BF0FBCF4CF0E9CF4DF003ED08F001
:10001800D8CF32F0E8CF33F0E0CF34F0FACF35F074
:10002800FBCF36F0E9CF37F0EACF38F0E1CF39F03F
:10003800E2CF3AF0D9CF3BF0DACF3CF0F3CF3DF046
:10004800F4CF3EF0F6CF3FF0F7CF40F0F8CF41F0D5
:10005800F5CF42F042C0F5FF41C0F8FF40C0F7FFBE
:100068003FC0F6FF3EC0F4FF3DC0F3FF3CC0DAFFDF
:100078003BC0D9FF3AC0E2FF39C0E1FF38C0EAFF10
:1000880037C0E9FF36C0FBFF35C0FAFF34C0E0FFD8
:0E00980033C0E8FF32C0D8FF100074EF0EF046
:10100000001B2B1F33000600EACF4EF0E1CF4FF05C
:10101000E2CF50F0D9CF51F0DACF52F0F3CF53F006
:10102000F4CF54F0F6CF55F0F7CF56F0F8CF57F095
:10103000F5CF58F0F2A46FD118BE69D1185004E171
:10104000030E175CD8A063D114BE08D0145003E17E
:101050001304D8A003D0E3EC0EF04DD11CBE08D091
:101060001C5003E11B04D8A003D0F1EC0EF043D1D7
:101070001EBE20D01E5003E11D04D8A01BD00EBE02
:1010800006D0210E0D5C030E0E58D8B008D010BE4D
:101090000DD0210E0F5C030E1058D8A007D0000E03
:1010A0001C6E0F0E1B6EF1EC0EF025D131503AEC98
:1010B0000EF021D10ABE06D00A5022E15F0E095C73
:1010C000D8B01ED05ABE1CD05A5004E1600E595CF4
:1010D000D8A016D02F50D8A413D009C059F00AC0F8
:1010E0005AF03050D8A404D0010E146EA40E03D0D0
:1010F000010E146E900E136E00D0E3EC0EF0FBD0D8
:101100005ABE06D05A5019E15F0E595CD8B015D0BE
:10111000000E1E6EA70E1D6E000E316E010E306E9B
:10112000000E5C6EC80E5B6E010E5A6E2C0E596E70
:10113000000E206E010E1F6EDED00CBE06D00C50CD
:101140001AE15B0E0B5CD8B016D02F50D8A413D088
:101150000BC05BF00CC05CF03050D8A404D0010E82
:10116000146EC20E03D0010E146E9A0E136E00D0D0
:10117000E3EC0EF0C0D05CBE06D05C5021E15B0E0B
:101180005B5CD8B01DD010BE1BD07D0E0F5C010E75
:101190001058D8A015D0000E1E6EA70E1D6E010EA1
:1011A000316E010E306E000E226E010E216E010EA8
:1011B0005A6E2C0E596E010E5C6E2C0E5B6E9BD01F
:1011C0005CBE06D05C500FE15B0E5B5CD8B00BD010
:1011D00010BE06D07C0E0F5C010E1058D8B003D0A4
:1011E0000AEC0BF088D00ABE3BD00A5004E1600E36
:1011F000095CD8A035D00CBE33D00C5004E15C0E95
:101200000B5CD8A02DD010BE2BD07D0E0F5C010E34
:101210001058D8A025D01EBE05D01E5021E11D04B7
:10122000D8B01ED0000E126E010E116E010E1E6E91
:101230004E0E1D6E31503AEC0EF0010E306E000E67
:101240005C6EC80E5B6E010E5A6E2C0E596E000E4F
:10125000206E000E1F6E000E226E000E216E4BD00F
:101260000ABE2CD00A5004E1600E095CD8A026D03A
:101270000CBE24D00C5004E15C0E0B5CD8A01ED038
:1012800010BE0ED0105004E1500E0F5CD8A008D054
:101290000EBE06D00E5007E1780E0D5CD8B003D01C
:1012A0000AEC0BF028D0000E436E010EADEC0CF0F2
:1012B000000E436E000EADEC0CF01DD0000E436E20
:1012C000010EADEC0CF0000E436E000EADEC0CF018
:1012D000000E306E000E206E000E1F6E000E226E8D
:1012E000000E216E000E5C6EC80E5B6E010E5A6E13
:1012F0002C0E596E00D02EC043F02D500CEC0FF088
:1013000019EC0FF0000E186E000E176E00D0174A81
:10131000182AF29400D058C0F5FF57C0F8FF56C005
:10132000F7FF55C0F6FF54C0F4FF53C0F3FF52C09F
:10133000DAFF51C0D9FF50C0E2FF4FC0E1FF4EC0FD
:10134000EAFF4DC0E9FF4CC0FBFF4BC0FAFF1100A4
:10135000000E0001996F000E986F000199BF0AD02E
:101360000001995106E1040E0001985DD8B051D1F9
:1013700001D04FD1000E0001976F000E966F000153
:1013800097BF0AD00001975106E10A0E0001965D51
:10139000D8B0D3D001D0D1D000019651000197111F
:1013A000D8A431D098C080F099C081F0000E00011F
:1013B000836F140E826F58EC0EF08BC08EF08CC0D1
:1013C0008FF00001805100018E2700018151000142
:1013D0008F23D89000019635D96E00019735DA6ECB
:1013E00000018E51D92600018F51DA22DECF90F014
:1013F000DDCF91F090C092F091C093F092C094F044
:1014000093C095F08FD098C080F099C081F0000E05
:101410000001836F140E826F58EC0EF08BC08EF0BB
:101420008CC08FF00001805100018E270001815196
:1014300000018F23D89000019635D96E00019735B1
:10144000DA6E00018E51D92600018F51DA22DECFEB
:1014500086F0DDCF87F092C088F093C089F08FECE2
:101460000EF086C092F087C093F098C080F099C0CB
:1014700081F0000E0001836F140E826F58EC0EF0A5
:101480008BC08EF08CC08FF00001805100018E2740
:101490000001815100018F23D89000019635D96E4B
:1014A00000019735DA6E00018E51D92600018F5167
:1014B000DA22DECF86F0DDCF87F090C088F091C0D1
:1014C00089F0A9EC0EF086C090F087C091F098C02A
:1014D00080F099C081F0000E0001836F140E826FBE
:1014E00058EC0EF08BC08EF08CC08FF00001805154
:1014F00000018E270001815100018F23D890000147
:101500009635D96E00019735DA6E00018E51D926D5
:1015100000018F51DA22DE5000019427DD500001D6
:10152000952300D00001964B972B000197BF34D72D
:101530000001975102E129D700D00001905100012C
:10154000922500018E6F000191510001932100014D
:101550008F6F00018E1F8F1F8E4B8F2B00019451B8
:1015600000018E250001946F0001955100018F212B
:101570000001956F00018D05D8B40CD094C080F0A7
:1015800095C081F0000E0001836F080E826F92EC0F
:101590000DF022D0D89000019835D96E0001993510
:1015A000DA6E010ED926000EDA22DECF8EF0DDCF04
:1015B0008FF094C080F095C081F0000E0001836F21
:1015C000080E826F92EC0DF000018E510001802711
:1015D00000018F5100018123D89000019835D96E08
:1015E00000019935DA6E090ED926000EDA220001C3
:1015F00080C0DEFF000181C0DDFF00D00001984BFC
:10160000992B000199BFB6D60001995102E1ABD6E2
:1016100000D01200000E4A6E000E496E0ABE77D04E
:101620000A5004E1600E095CD8A071D00CBE6FD0E6
:101630000C5004E15C0E0B5CD8A069D009C046F0E8
:101640000AC047F0461E471E464A472A0B5046240A
:10165000436E0C504720446EFFEC0EF043C049F03F
:1016600044C04AF05D50D8B40CD0000E436E010E59
:10167000ADEC0CF0000E436E000EADEC0CF08CD017
:10168000DBD009500B5C0C50800A466E0A50800A71
:101690004658D8B00FD0000E486E000E436E48502A
:1016A000ADEC0CF02EC043F02D500CEC0FF019EC0B
:1016B0000FF00FD0010E486E000E436E4850ADEC97
:1016C0000CF02EC043F02D500CEC0FF019EC0FF085
:1016D00000D04ABE08D04A5004E1510E495CD8A05F
:1016E00002D0010E9CD04ABE06D04A500EE1510EE7
:1016F000495CD8B093D04ABE91D04A5004E11F0E45
:10170000495CD8A08BD0050E8AD088D095D00ABE6F
:1017100008D00A5005E1600E095CD8B08DD001D028
:101720008BD00ABE7ED00A5004E1600E095CD8A0BE
:1017300078D00CBE76D00C5004E15C0E0B5CD8A0C7
:1017400070D010BE6ED0105004E1510E0F5CD8A0C6
:1017500068D020EE0DF0DECF46F0DDCF47F0461E1C
:10176000471E464A472A0F504624436E10504720D2
:10177000446EFFEC0EF043C049F044C04AF05D50A7
:10178000D8B40CD0000E436E010EADEC0CF0000E80
:10179000436E000EADEC0CF05D064ED00D500F5CAC
:1017A0001050800A466E0E50800A4658D8B00FD0AE
:1017B000000E486E000E436E4850ADEC0CF02EC08B
:1017C00043F02D500CEC0FF019EC0FF00FD0010E80
:1017D000486E000E436E4850ADEC0CF02EC043F046
:1017E0002D500CEC0FF019EC0FF000D04ABE06D0D3
:1017F0004A5003E1510E495CD8B073D74ABE06D0B7
:101800004A500CE1510E495CD8B008D04ABE06D00F
:101810004A5003E11F0E495CD8B075D70A0E5D6EC1
:101820000BD0000E436E010EADEC0CF0000E436EBB
:10183000000EADEC0CF000D012000001F06F000EB5
:101840000001F26F000EF16F0001F2BF0AD000013B
:10185000F25178E10A0E0001F15DD8B073D001D0E9
:1018600071D0000E0001F46F000EF36F0001F4BFA1
:101870000AD00001F45161E1040E0001F35DD8B01B
:101880005CD001D05AD0010E0001F325F66E100E87
:10189000F421F76E0800F5CFC2FFC28200D0C2B2B9
:1018A000FED7C3CF9AF0060E00019B6F0001D890BF
:1018B0009A3300019B2FFAD700019A51C4CF9CF0B4
:1018C00000019D6B0001D8909C379D370001D89096
:1018D0009C379D3700019C27000E9D23F3C080F0AC
:1018E000F4C081F0000E0001836F140E826F58EC7B
:1018F0000EF0A00E00019E6F000E00019F6F000110
:10190000805100019E270001815100019F23D89042
:101910000001F135D96E0001F235DA6E00019E51F9
:10192000D92600019F51DA229CC0DEFF9DC0DDFF59
:101930000001F34BF42B9AD700D00001F14BF22BAE
:1019400083D700D0A00E00018B6F000E00018C6FBA
:10195000F0C08DF0A8EC09F01200446E4450D8A4F9
:101960001BD04304D8B40BD017D009D0020E04D03A
:10197000040E02D03ED039D02D6E68D036D02D5016
:10198000010AD8B4F3D7030AD8B4F2D7060AD8B4F8
:1019900030D00C0A2AD05AD04404D8A41DD0430415
:1019A000D8B40BD019D009D0080E40D0010E3ED0CB
:1019B000020E3CD0040E3AD0F7D72E50010AD8B40C
:1019C000F3D7030AD8B4F2D7060AD8B4F1D70C0A71
:1019D000D8B4F0D7E9D73AD04450D8A41BD043505C
:1019E000D8B409D017D007D004D0010EC5D7BED7C0
:1019F000BFD7080EC1D72D50010AD8B4FAD7030AB1
:101A0000D8B4F3D7060AD8B4B1D70C0AD8B4B0D733
:101A1000F0D71CD04404D8A419D04350D8B409D06E
:101A200015D007D0C5D7C6D7BFD7C0D72E6E0ED01A
:101A3000BDD72E50010AD8B4BBD7030AD8B4BAD741
:101A4000060AD8B4B1D70C0AB1D700D01200095099
:101A50000B240001806F0A500C200001816F000EE2
:101A60000001836F020E826F92EC0DF080C08AF04D
:101A700081C08BF00F500D240001806F10500E209C
:101A80000001816F000E0001836F020E826F92ECE5
:101A90000DF080C08CF081C08DF08AC088F08BC0C2
:101AA00089F00001881F891F884B892B095000018C
:101AB0008825016E0A5000018921026E8AC088F0D3
:101AC0008BC089F00001881F891F884B892B0B5020
:101AD00000018825036E0C5000018921046E8CC022
:101AE00088F08DC089F00001881F891F884B892BE1
:101AF0000D5000018825056E0E5000018921066EEB
:101B00008CC088F08DC089F00001881F891F884B28
:101B1000892B0F5000018825076E10500001892184
:101B2000086E1200000E0001856F000183AF09D01E
:101B30000001826D831FD8B0832B010E0001856FD9
:101B400000D0000181AF09D00001806D811FD8B0A5
:101B5000812B010E0001851B00D0000E0001876F54
:101B6000000E866F0001825100018311D8B431D07C
:101B7000010E0001846F07D00001D89082378337AF
:101B80000001842B00D0000183BF02D0F5D700D024
:101B90000001D89086378737000182510001805DAF
:101BA0000001835100018159D8A00BD0000182515E
:101BB0000001805F000183510001815B000186818B
:101BC00000D00001D890833382330001842FE0D706
:101BD00000D0000185510001D8B406D00001866D07
:101BE000871FD8B0872B00D086C080F087C081F0D7
:101BF00000D01200000E0001846F000E836F000EF3
:101C00000001846F000E836F0CD00B0E0001826FF9
:101C1000620EE82EFED7822FFCD700D00001834B46
:101C2000842B000180510001835D0001815100017E
:101C30008459D8A0EAD71200000E946E968296843A
:101C40009382938093869384010EC16E0A0EC06EB8
:101C50002B0EC26EC40ED56EF40EF16E200EF26E17
:101C6000D4EC0EF0030E0001816FE80E806FFAECE9
:101C70000DF01200456E4550D8A40BD0000E436EF7
:101C8000010EADEC0CF0010E436E000EADEC0CF04D
:101C90000BD0000E436E000EADEC0CF0010E436E47
:101CA000010EADEC0CF000D01D06D8A01E061200EF
:101CB0000001805100018203F3CF84F0F4CF85F05E
:101CC0000001805100018303F350000185270001CA
:101CD000815100018203F3500001852784C080F008
:101CE00085C081F000D0120000EE01F0310EEE6AE6
:101CF000E806FDE13A0EF66E1E0EF76E000EF86E67
:101D000000EE59F010EE05F00900F5CFEEFFE550BA
:101D1000E150FAE1000EF86E0001C3EF0EF0000191
:101D200086510001885D00018951800A00018A6F97
:101D300000018751800A00018A59D8B005D088C0B7
:101D400086F089C087F004D086C086F087C087F00F
:101D50001200000186510001885D00018951800A4E
:101D600000018A6F00018751800A00018A59D8B0AA
:101D700005D086C086F087C087F004D088C086F082
:101D800089C087F0120014EC0FF01CEC0EF0010E6D
:101D90001DEC0CF027EC0DF0F28E00D0000E1DECC7
:101DA0000CF0FCD751EF00F0270EC26EC28200D0BB
:101DB000C2B2FED7800EC36402D0000E01D0010E65
:101DC0002F6E00D01200000E436E010EADEC0CF031
:101DD000000E436E000EADEC0CF01306D8A01406F6
:101DE0001200010E436E010EADEC0CF0010E436EBD
:101DF000000EADEC0CF01B06D8A01C06120044AE81
:101E000005D0436C441ED8B0442A00D043C043F0F0
:101E100044C044F000D01200446E4338F00B442418
:101E2000456E455000D012007C0ED36E4F0E9B6E57
:101E30001200436E43C08BFF1200C800C8000A00A6
:020000040020DA
:08000000FFFFFFFFFFFFFFFF00
:020000040030CA
:0E000000FF081F1EFF8185FF0FC00FE00F409D
:00000001FF
