:0400000051EF00F0CC
:10000800FACF50F0FBCF51F0E9CF52F003ED08F0F2
:10001800D8CF38F0E8CF39F0E0CF3AF0FACF3BF05C
:10002800FBCF3CF0E9CF3DF0EACF3EF0E1CF3FF027
:10003800E2CF40F0D9CF41F0DACF42F0F3CF43F02E
:10004800F4CF44F0F6CF45F0F7CF46F0F8CF47F0BD
:10005800F5CF48F048C0F5FF47C0F8FF46C0F7FFA6
:1000680045C0F6FF44C0F4FF43C0F3FF42C0DAFFC7
:1000780041C0D9FF40C0E2FF3FC0E1FF3EC0EAFFF8
:100088003DC0E9FF3CC0FBFF3BC0FAFF3AC0E0FFC0
:0E00980039C0E8FF38C0D8FF1000D8EF0DF0D7
:10100000001B2B1F33000600EACF53F0E1CF54F052
:10101000E2CF55F0D9CF56F0DACF57F0F3CF58F0F2
:10102000F4CF59F0F6CF5AF0F7CF5BF0F8CF5CF081
:10103000F5CF5DF0F2A443D11ABE3DD11A5004E1C0
:10104000030E195CD8A037D116BE08D0165003E1A4
:101050001504D8A003D00CEC0EF021D11EBE08D090
:101060001E5003E11D04D8A003D01AEC0EF017D1D6
:1010700020BE3DD0205003E11F04D8A038D00EBEC2
:1010800006D0210E0D5C030E0E58D8B008D010BE4D
:101090000DD0210E0F5C030E1058D8A007D0000E03
:1010A0001E6E0F0E1D6E1AEC0EF0F9D00EBE06D09D
:1010B0000E5014E1640E0D5CD8B010D010BE06D0F6
:1010C00010500CE1640E0F5CD8B008D0000E206EFA
:1010D000140E1F6E37506AEC0DF0E1D037506AECF9
:1010E0000DF0000E246E000E236E0DD0D8D021041A
:1010F0002210D8A40DD0000E206EAA0E1F6E000E76
:10110000376E010E366E000E226E000E216EC7D0B5
:1011100023042410D8B410BE16D0B90E0F5C010EF3
:101120001058D8B00EBE0FD0B90E0D5C010E0E587F
:10113000D8A009D0000E206EAA0E1F6E010E376EC9
:10114000010E366EA7D00ABE22D00A5004E1510E1D
:10115000095CD8A01CD00CBE1AD00C5004E14C0E77
:101160000B5CD8A014D010BE06D0A40E0F5C010EEC
:101170001058D8B00CD00EBE06D0A40E0D5C010ED7
:101180000E58D8B004D0C9EC0CF0000E71D00ABED5
:1011900006D00A501AE1500E095CD8B016D035506E
:1011A000D8A413D0000E226E010E216E3650D8A4A2
:1011B00004D0010E166EC20E03D0010E166E9A0EEA
:1011C000156E00D00CEC0EF06AD00CBE06D00C50A0
:1011D00022E14B0E0B5CD8B01ED00ABE1CD00A50C8
:1011E00004E1510E095CD8A016D03550D8A413D014
:1011F000000E246E010E236E3650D8A404D0010ECA
:10120000166EAE0E03D0010E166E860E156E00D051
:101210000CEC0EF044D00ABE2DD00A5004E1510E61
:10122000095CD8A027D00CBE25D00C5004E14C0E90
:101230000B5CD8A01FD010BE1DD0E10E0F5C010EBC
:101240001058D8B00EBE16D0E10E0D5C010E0E582F
:10125000D8A010D020BE05D020500CE11F04D8B07B
:1012600009D0010E206E540E1F6E000E376E010E57
:10127000366E15D0000E496E010E6EEC0BF0000EAE
:10128000496E000E6EEC0BF0000E366E000E226EF4
:10129000000E216E000E246E000E236E00D034C0AE
:1012A00049F0335035EC0EF042EC0EF0000E1A6EA1
:1012B000000E196E00D0194A1A2AF29400D05DC0AF
:1012C000F5FF5CC0F8FF5BC0F7FF5AC0F6FF59C0DE
:1012D000F4FF58C0F3FF57C0DAFF56C0D9FF55C01E
:1012E000E2FF54C0E1FF53C0EAFF52C0E9FF51C022
:1012F000FBFF50C0FAFF1100000E0001996F000EB5
:10130000986F000199BF0AD00001995106E1040EBF
:101310000001985DD8B051D101D04FD1000E00012D
:10132000976F000E966F000197BF0AD0000197518A
:1013300006E10A0E0001965DD8B0D3D001D0D1D01D
:101340000001965100019711D8A431D098C080F0C7
:1013500099C081F0000E0001836F140E826F88EC3B
:101360000DF08BC08EF08CC08FF000018051000119
:101370008E270001815100018F23D89000019635FE
:10138000D96E00019735DA6E00018E51D926000121
:101390008F51DA22DECF90F0DDCF91F090C092F045
:1013A00091C093F092C094F093C095F08FD098C004
:1013B00080F099C081F0000E0001836F140E826FDF
:1013C00088EC0DF08BC08EF08CC08FF00001805146
:1013D00000018E270001815100018F23D890000168
:1013E0009635D96E00019735DA6E00018E51D926F7
:1013F00000018F51DA22DECF86F0DDCF87F092C078
:1014000088F093C089F0A4EC0DF086C092F087C0FC
:1014100093F098C080F099C081F0000E0001836FB6
:10142000140E826F88EC0DF08BC08EF08CC08FF0A4
:101430000001805100018E270001815100018F239E
:10144000D89000019635D96E00019735DA6E00010B
:101450008E51D92600018F51DA22DECF86F0DDCF02
:1014600087F090C088F091C089F0BEEC0DF086C086
:1014700090F087C091F098C080F099C081F0000E84
:101480000001836F140E826F88EC0DF08BC08EF01C
:101490008CC08FF00001805100018E270001815126
:1014A00000018F23D89000019635D96E0001973541
:1014B000DA6E00018E51D92600018F51DA22DE50FA
:1014C00000019427DD500001952300D00001964BC8
:1014D000972B000197BF34D70001975102E129D71C
:1014E00000D0000190510001922500018E6F000193
:1014F00091510001932100018F6F00018E1F8F1FFA
:101500008E4B8F2B0001945100018E250001946FAA
:101510000001955100018F210001956F00018D059B
:10152000D8A40CD094C080F095C081F0000E0001CA
:10153000836F080E826F61EC0CF022D0D89000010E
:101540009835D96E00019935DA6E010ED926000E54
:10155000DA22DECF8EF0DDCF8FF094C080F095C020
:1015600081F0000E0001836F080E826F61EC0CF0B9
:1015700000018E510001802700018F51000181235D
:10158000D89000019835D96E00019935DA6E090EB0
:10159000D926000EDA22000180C0DEFF000181C0E2
:1015A000DDFF00D00001984B992B000199BFB6D602
:1015B0000001995102E1ABD600D012000001F06F9A
:1015C000000E0001F26F000EF16F0001F2BF0AD0B1
:1015D0000001F25178E10A0E0001F15DD8B073D03C
:1015E00001D071D0000E0001F46F000EF36F000106
:1015F000F4BF0AD00001F45161E1040E0001F35D73
:10160000D8B05CD001D05AD0010E0001F325F66E9F
:10161000100EF421F76E0800F5CFC2FFC28200D091
:10162000C2B2FED7C3CF9AF0060E00019B6F000135
:10163000D8909A3300019B2FFAD700019A51C4CF5A
:101640009CF000019D6B0001D8909C379D370001F4
:10165000D8909C379D3700019C27000E9D23F3C036
:1016600080F0F4C081F0000E0001836F140E826FD1
:1016700088EC0DF0A00E00019E6F000E00019F6F20
:101680000001805100019E270001815100019F232C
:10169000D8900001F135D96E0001F235DA6E000103
:1016A0009E51D92600019F51DA229CC0DEFF9DC0C9
:1016B000DDFF0001F34BF42B9AD700D00001F14B72
:1016C000F22B83D700D0A00E00018B6F000E00011B
:1016D0008C6FF0C08DF07CEC09F012004A6E4A501D
:1016E000D8A41BD04904D8B40BD017D009D0020E0F
:1016F00004D0040E02D03ED039D0336E68D036D03C
:101700003350010AD8B4F3D7030AD8B4F2D7060A83
:10171000D8B430D00C0A2AD05AD04A04D8A41DD04C
:101720004904D8B40BD019D009D0080E40D0010E0E
:101730003ED0020E3CD0040E3AD0F7D73450010A06
:10174000D8B4F3D7030AD8B4F2D7060AD8B4F1D77D
:101750000C0AD8B4F0D7E9D73AD04A50D8A41BD055
:101760004950D8B409D017D007D004D0010EC5D73E
:10177000BED7BFD7080EC1D73350010AD8B4FAD7A5
:10178000030AD8B4F3D7060AD8B4B1D70C0AD8B430
:10179000B0D7F0D71CD04A04D8A419D04950D8B437
:1017A00009D015D007D0C5D7C6D7BFD7C0D7346E9C
:1017B0000ED0BDD73450010AD8B4BBD7030AD8B471
:1017C000BAD7060AD8B4B1D70C0AB1D700D01200E4
:1017D00009500B240001806F0A500C200001816F1A
:1017E000000E0001836F020E826F61EC0CF080C06E
:1017F0008AF081C08BF00F500D240001806F1050D3
:101800000E200001816F000E0001836F020E826FB7
:1018100061EC0CF080C08CF081C08DF009C088F0C4
:101820000AC089F00001881F891F884B892B00019D
:101830008A5100018825016E00018B510001892128
:10184000026E20EE0BF0DECF88F0DDCF89F00001D4
:10185000881F891F884B892B00018A510001882528
:10186000036E00018B5100018921046E20EE0DF002
:10187000DECF88F0DDCF89F00001881F891F884BFB
:10188000892B00018C5100018825056E00018D51C6
:1018900000018921066E20EE0FF0DECF88F0DDCF4B
:1018A00089F00001881F891F884B892B00018C510A
:1018B00000018825076E00018D5100018921086E05
:1018C0001200000E0001856F000183AF09D00001F6
:1018D000826D831FD8B0832B010E0001856F00D06D
:1018E000000181AF09D00001806D811FD8B0812B2C
:1018F000010E0001851B00D0000E0001876F000E55
:10190000866F0001825100018311D8B431D0010EDD
:101910000001846F07D00001D8908237833700011F
:10192000842B00D0000183BF02D0F5D700D0000186
:10193000D89086378737000182510001805D000111
:10194000835100018159D8A00BD0000182510001C0
:10195000805F000183510001815B0001868100D01E
:101960000001D890833382330001842FE0D700D068
:10197000000185510001D8B406D00001866D871F93
:10198000D8B0872B00D086C080F087C081F000D00F
:101990001200000E4F6E000E4E6E5E50D8B40CD08A
:1019A000000E496E010E6EEC0BF0000E496E000E3B
:1019B0006EEC0BF05E064DD009C04BF00AC04CF047
:1019C0004B1E4C1E4B4A4C2A0B504B24496E0C505C
:1019D0004C204A6E28EC0EF049C04EF04AC04FF041
:1019E00009500B5C0C50800A4B6E0A50800A4B5811
:1019F000D8B008D0000E4D6E000E496E4D506EEC02
:101A00000BF008D0010E4D6E000E496E4D506EEC7D
:101A10000BF000D04FBE08D04F5004E13D0E4E5C9D
:101A2000D8A002D0010E13D04FBE06D04F500EE109
:101A30003D0E4E5CD8B00AD04FBE08D04F5004E1E6
:101A4000150E4E5CD8A002D0030E01D00A0E5E6EB9
:101A500000D01200000E0001846F000E836F000E94
:101A60000001846F000E836F0CD00B0E0001826F9B
:101A7000620EE82EFED7822FFCD700D00001834BE8
:101A8000842B000180510001835D00018151000120
:101A90008459D8A0EAD71200000E946E96829684DC
:101AA0009382938093869384010EC16E0A0EC06E5A
:101AB0002B0EC26EC40ED56EF40EF16E200EF26EB9
:101AC000FDEC0DF0030E0001816FE80E806F2AEC33
:101AD0000DF012004B6E4B50D8A40BD0000E496E87
:101AE000010E6EEC0BF0010E496E000E6EEC0BF069
:101AF0000BD0000E496E000E6EEC0BF0010E496E1D
:101B0000010E6EEC0BF000D01F06D8A020061200CC
:101B10000001805100018203F3CF84F0F4CF85F0FF
:101B20000001805100018303F3500001852700016B
:101B3000815100018203F3500001852784C080F0A9
:101B400085C081F000D01200000186510001885D3F
:101B500000018951800A00018A6F00018751800AC3
:101B600000018A59D8B005D088C086F089C087F0B6
:101B700004D086C086F087C087F01200000186512D
:101B80000001885D00018951800A00018A6F00010F
:101B90008751800A00018A59D8B005D086C086F0E6
:101BA00087C087F004D088C086F089C087F0120013
:101BB00000EE01F0370EEE6AE806FDE18C0EF66EDF
:101BC0001C0EF76E000EF86E0900F5CF5EF0000EE9
:101BD000F86E0001ECEF0DF03DEC0EF04CEC0DF06A
:101BE000010EDEEC0AF0E8EC0BF0F28E00D0000EF5
:101BF000DEEC0AF0FCD751EF00F0270EC26EC28275
:101C000000D0C2B2FED7800EC36402D0000E01D055
:101C1000010E356E00D01200000E496E010E6EEC02
:101C20000BF0000E496E000E6EEC0BF01506D8A0FE
:101C300016061200010E496E010E6EEC0BF0010E3D
:101C4000496E000E6EEC0BF01D06D8A01E061200A9
:101C50004AAE05D0496C4A1ED8B04A2A00D049C0C5
:101C600049F04AC04AF000D012004A6E4938F00BE1
:101C70004A244B6E4B5000D012007C0ED36E4F0E98
:0E1C80009B6E1200496E49C08BFF12000A00D5
:020000040020DA
:08000000FFFFFFFFFFFFFFFF00
:020000040030CA
:0E000000FF081F1EFF8185FF0FC00FE00F409D
:00000001FF
