:0400000051EF00F0CC
:10000800FACF4DF0FBCF4EF0E9CF4FF0E7ED09F016
:10001800D8CF36F0E8CF37F0E0CF38F0FACF39F064
:10002800FBCF3AF0E9CF3BF0EACF3CF0E1CF3DF02F
:10003800E2CF3EF0D9CF3FF0DACF40F0F3CF41F036
:10004800F4CF42F0F6CF43F0F7CF44F0F8CF45F0C5
:10005800F5CF46F046C0F5FF45C0F8FF44C0F7FFAE
:1000680043C0F6FF42C0F4FF41C0F3FF40C0DAFFCF
:100078003FC0D9FF3EC0E2FF3DC0E1FF3CC0EAFF00
:100088003BC0E9FF3AC0FBFF39C0FAFF38C0E0FFC8
:0E00980037C0E8FF36C0D8FF10001DEF0FF094
:10100000001B2B1F3300000E00019B6F000E9A6F18
:1010100000019BBF0AD000019B5106E1040E0001B4
:101020009A5DD8B0D3D101D0D1D1000E0001996F13
:10103000000E986F000199BF0AD00001995106E196
:101040000A0E0001985DD8B0D3D001D0D1D00001F4
:10105000985100019911D8A431D09AC080F09BC05A
:1010600081F0000E0001836F140E826F01EC0FF00F
:101070008BC08EF08CC08FF00001805100018E2754
:101080000001815100018F23D89000019835D96E5D
:1010900000019935DA6E00018E51D92600018F5179
:1010A000DA22DECF92F0DDCF93F092C094F093C0BD
:1010B00095F094C096F095C097F08FD09AC080F0CC
:1010C0009BC081F0000E0001836F140E826F01EC53
:1010D0000FF08BC08EF08CC08FF0000180510001AA
:1010E0008E270001815100018F23D890000198358F
:1010F000D96E00019935DA6E00018E51D9260001B2
:101100008F51DA22DECF86F0DDCF87F094C088F0F1
:1011100095C089F037EC0FF086C094F087C095F049
:101120009AC080F09BC081F0000E0001836F140E06
:10113000826F01EC0FF08BC08EF08CC08FF000013D
:10114000805100018E270001815100018F23D8902A
:1011500000019835D96E00019935DA6E00018E5183
:10116000D92600018F51DA22DECF86F0DDCF87F05D
:1011700092C088F093C089F051EC0FF086C092F0D5
:1011800087C093F09AC080F09BC081F0000E0001F0
:10119000836F140E826F01EC0FF08BC08EF08CC049
:1011A0008FF00001805100018E2700018151000164
:1011B0008F23D89000019835D96E00019935DA6EE9
:1011C00000018E51D92600018F51DA22DE50000134
:1011D0009627DD500001972300D00001984B992BF2
:1011E000000199BF34D70001995102E129D700D0FD
:1011F000000192510001942500018E6F000193516E
:101200000001952100018F6F00018E1F8F1F8E4BF3
:101210008F2B0001965100018E250001966F000171
:10122000975100018F210001976F00018D05D8A40F
:101230001DD096C080F097C081F0000E0001836F32
:10124000080E826F10EC0EF0D89000019A35D96E1E
:1012500000019B35DA6E090ED926000EDA22000154
:1012600080C0DEFF000181C0DDFFA5D0D890000165
:101270009A35D96E00019B35DA6E010ED926000E23
:10128000DA22DECF8EF0DDCF8FF096C080F097C0EF
:1012900081F0000E0001836F080E826F10EC0EF0DB
:1012A00000018E510001802700018F510001812330
:1012B000D89000019A35D96E00019B35DA6E090E7F
:1012C000D926000EDA22000180C0DEFF000181C0B5
:1012D000DDFF030E00019A1900019B11D8A46BD009
:1012E000D89000019A35D96E00019B35DA6E090E4F
:1012F000D926000EDA22010EDBBE1CD05F0EDE5CAA
:10130000010EDE58D8A016D0D89000019A35D96EBB
:1013100000019B35DA6E090ED926000EDA22010E85
:10132000DBBE06D0C30EDE5C010EDE58D8B002D0A4
:10133000D80E15D0D89000019A35D96E00019B3592
:10134000DA6E090ED926000EDA22010EDBBE33D08A
:10135000C30EDE5C010EDE58D8A02DD0C40E0001F5
:101360008E6FFF0E00018F6FD89000019A35D96EF5
:1013700000019B35DA6E090ED926000EDA22DECF87
:1013800090F0DDCF91F000018E5100019027000117
:101390008F5100019123D89000019A35D96E000138
:1013A0009B35DA6E090ED926000EDA2290C0DEFFD8
:1013B00091C0DDFF00D000019A4B9B2B00019BBF29
:1013C00034D600019B5102E129D600D0120006005C
:1013D000EACF50F0E1CF51F0E2CF52F0D9CF53F045
:1013E000DACF54F0F3CF55F0F4CF56F0F6CF57F0F4
:1013F000F7CF58F0F8CF59F0F5CF5AF0F2A462D1F8
:1014000018BE5CD1185004E1030E175CD8A056D169
:101410007FEC0BF05D505B18D8B402D0010E01D008
:10142000000E2F6E00D02F04D8A426D01D501E1001
:10143000D8A422D00EBE06D00E5012E1FA0E0D5CDA
:10144000D8B00ED010BE06D010500AE1FA0E0F5CD4
:10145000D8B006D03404010E146E5E0E04D005D050
:10146000000E146E010E136E00D09CEC0FF05BC0EA
:101470005DF0000E2F6E16D11EBE29D01E5003E166
:101480001D04D8A024D00EBE06D00E5014E1640E68
:101490000D5CD8B010D010BE06D010500CE1640E18
:1014A0000F5CD8B008D03304D8A405D0000E1E6E4F
:1014B000050E1D6E00D03550E3EC0EF0000E226ECE
:1014C000000E216E000E206E000E1F6EEBD028BEA7
:1014D00005D0285013E12704D8B010D02ABE05D07B
:1014E0002A500CE12904D8B009D014BE2CD01450D5
:1014F00005E11304D8B002D026D000D078EC0EF06D
:1015000028BE0ED0285003E12704D8A009D0000E31
:10151000476E010E1DEC0DF02706D8A02806C2D09C
:101520002ABE0ED02A5003E12904D8A009D0000E0B
:10153000476E000E1DEC0DF02906D8A02A06B2D089
:101540009CEC0FF0AFD013501410D8A4ABD0325095
:10155000D8A454D05B50D8A408D0000E4B6E000E17
:101560004A6E000E6BEC0FF09DD0020E5B18D8A4F3
:1015700003D0B1EC0FF096D0030E5B18D8A408D0BE
:10158000000E4B6E010E4A6E000E6BEC0FF08AD00F
:10159000040E5B18D8A403D0B1EC0FF083D0050E75
:1015A0005B18D8A408D0000E4B6E000E4A6E000ED9
:1015B0006BEC0FF077D0060E5B18D8A408D0000EA5
:1015C0004B6E000E4A6E010E6BEC0FF06BD0070EE7
:1015D0005B18D8A408D0000E4B6E000E4A6E000EA9
:1015E0006BEC0FF05FD05B04D8A45CD0000E4B6EA8
:1015F000000E4A6E000E6BEC0FF054D05B50D8A476
:1016000008D0000E4B6E000E4A6E010E6BEC0FF010
:1016100049D0020E5B18D8A403D0B1EC0FF042D031
:10162000030E5B18D8A408D0000E4B6E010E4A6E54
:10163000010E6BEC0FF036D0040E5B18D8A408D066
:10164000000E4B6E000E4A6E010E6BEC0FF02AD0AE
:10165000050E5B18D8A403D0B1EC0FF023D0060E12
:101660005B18D8A408D0000E4B6E000E4A6E010E17
:101670006BEC0FF017D0070E5B18D8A408D0000E43
:101680004B6E000E4A6E000E6BEC0FF00BD05B043D
:10169000D8A408D0000E4B6E000E4A6E010E6BEC03
:1016A0000FF000D031C047F03050D0EC0FF0DDEC3F
:1016B0000FF0000E186E000E176E00D0174A182A91
:1016C000F29400D05AC0F5FF59C0F8FF58C0F7FF98
:1016D00057C0F6FF56C0F4FF55C0F3FF54C0DAFF01
:1016E00053C0D9FF52C0E2FF51C0E1FF50C0EAFF32
:1016F0004FC0E9FF4EC0FBFF4DC0FAFF11000ABE0C
:1017000006D00A501EE1C80E095CD8B01AD00CBE33
:1017100006D00C5016E1C80E0B5CD8B012D00EBE2D
:1017200006D02C0E0D5C010E0E58D8B00AD010BE9B
:1017300006D02C0E0F5C010E1058D8B002D0000E4F
:10174000E9D00ABE20D00A5004E1C90E095CD8A035
:101750001AD00CBE18D00C5004E1C90E0B5CD8A0F6
:1017600012D00EBE06D02C0E0D5C010E0E58D8B055
:101770000AD010BE06D02C0E0F5C010E1058D8B047
:1017800002D0020EC7D00ABE1FD00A5004E1C90E13
:10179000095CD8A019D00CBE17D00C5004E1C90EBA
:1017A0000B5CD8A011D00EBE0FD02D0E0D5C010E1B
:1017B0000E58D8B010BE08D02D0E0F5C010E105878
:1017C000D8A002D0030EA6D00ABE20D00A5004E151
:1017D000C90E095CD8A01AD00CBE06D00C5016E178
:1017E000C80E0B5CD8B012D00EBE06D02C0E0D5C0D
:1017F000010E0E58D8B00AD010BE06D02C0E0F5CC9
:10180000010E1058D8B002D0040E84D00ABE06D003
:101810000A501EE1C80E095CD8B01AD00CBE18D010
:101820000C5004E1C90E0B5CD8A012D00EBE06D03D
:101830002C0E0D5C010E0E58D8B00AD010BE06D08A
:101840002C0E0F5C010E1058D8B002D0050E62D0DD
:101850000ABE1FD00A5004E1C90E095CD8A019D0F5
:101860000CBE06D00C5015E1C80E0B5CD8B011D0E0
:101870000EBE0FD02D0E0D5C010E0E58D8B010BE4E
:1018800008D02D0E0F5C010E1058D8A002D0060E05
:1018900041D00ABE06D00A501DE1C80E095CD8B07E
:1018A00019D00CBE17D00C5004E1C90E0B5CD8A0A7
:1018B00011D00EBE0FD02D0E0D5C010E0E58D8B0FB
:1018C00010BE08D02D0E0F5C010E1058D8A002D00B
:1018D000070E20D00ABE06D00A501EE1C80E095CD1
:1018E000D8B01AD00CBE06D00C5016E1C80E0B5C56
:1018F000D8B012D00EBE10D02D0E0D5C010E0E58B9
:10190000D8B010BE09D02D0E0F5C010E1058D8A013
:1019100003D0010E5B6E00D012000001F26F000ECA
:101920000001F46F000EF36F0001F4BF0AD0000154
:10193000F45178E10A0E0001F35DD8B073D001D004
:1019400071D0000E0001F66F000EF56F0001F6BFBA
:101950000AD00001F65161E1040E0001F55DD8B036
:101960005CD001D05AD0010E0001F525F66E100EA4
:10197000F621F76E0800F5CFC2FFC28200D0C2B2D6
:10198000FED7C3CF9CF0060E00019D6F0001D890DA
:101990009C3300019D2FFAD700019C51C4CF9EF0CB
:1019A00000019F6B0001D8909E379F370001D890AF
:1019B0009E379F3700019E27000E9F23F5C080F0C1
:1019C000F6C081F0000E0001836F140E826F01ECEF
:1019D0000FF0A20E0001A06F000E0001A16F000128
:1019E00080510001A027000181510001A123D8905E
:1019F0000001F335D96E0001F435DA6E0001A05113
:101A0000D9260001A151DA229EC0DEFF9FC0DDFF72
:101A10000001F54BF62B9AD700D00001F34BF42BC5
:101A200083D700D0A20E00018B6F000E00018C6FD7
:101A3000F2C08DF003EC08F01200486E4850D8A4B4
:101A40001BD04704D8B40BD017D009D0020E04D055
:101A5000040E02D03ED039D0306E68D036D030502F
:101A6000010AD8B4F3D7030AD8B4F2D7060AD8B417
:101A700030D00C0A2AD05AD04804D8A41DD047042C
:101A8000D8B40BD019D009D0080E40D0010E3ED0EA
:101A9000020E3CD0040E3AD0F7D73150010AD8B428
:101AA000F3D7030AD8B4F2D7060AD8B4F1D70C0A90
:101AB000D8B4F0D7E9D73AD04850D8A41BD0475073
:101AC000D8B409D017D007D004D0010EC5D7BED7DF
:101AD000BFD7080EC1D73050010AD8B4FAD7030ACD
:101AE000D8B4F3D7060AD8B4B1D70C0AD8B4B0D753
:101AF000F0D71CD04804D8A419D04750D8B409D086
:101B000015D007D0C5D7C6D7BFD7C0D7316E0ED036
:101B1000BDD73150010AD8B4BBD7030AD8B4BAD75D
:101B2000060AD8B4B1D70C0AB1D700D012000950B8
:101B30000B240001806F0A500C200001816F000E01
:101B40000001836F020E826F10EC0EF080C08AF0ED
:101B500081C08BF00F500D240001806F10500E20BB
:101B60000001816F000E0001836F020E826F10EC86
:101B70000EF080C08CF081C08DF009C088F00AC0E2
:101B800089F00001881F891F884B892B00018A5129
:101B900000018825016E00018B5100018921026E30
:101BA00020EE0BF0DECF88F0DDCF89F00001881F3A
:101BB000891F884B892B00018A5100018825036EFB
:101BC00000018B5100018921046E20EE0DF0DECF63
:101BD00088F0DDCF89F00001881F891F884B892B91
:101BE00000018C5100018825056E00018D51000116
:101BF0008921066E20EE0FF0DECF88F0DDCF89F070
:101C00000001881F891F884B892B00018C5100011E
:101C10008825076E00018D5100018921086E120090
:101C2000000E0001856F000183AF09D00001826DB5
:101C3000831FD8B0832B010E0001856F00D00001F7
:101C400081AF09D00001806D811FD8B0812B010EBA
:101C50000001851B00D0000E0001876F000E866F0B
:101C60000001825100018311D8B431D0010E00016E
:101C7000846F07D00001D890823783370001842B0E
:101C800000D0000183BF02D0F5D700D00001D8906A
:101C900086378737000182510001805D0001835142
:101CA00000018159D8A00BD0000182510001805F52
:101CB000000183510001815B0001868100D0000199
:101CC000D890833382330001842FE0D700D0000105
:101CD00085510001D8B406D00001866D871FD8B0A9
:101CE000872B00D086C080F087C081F000D0120022
:101CF0000EBE0ED00E5004E1960E0D5CD8A008D09A
:101D000010BE06D010501EE1960E0F5CD8B01AD04F
:101D10000ABE0BD0910E095C010E0A58D8A005D05E
:101D2000000E2A6E1E0E296E0DD00CBE0BD0910E29
:101D30000B5C010E0C58D8A005D0000E286E1E0EAC
:101D4000276E00D01200000E0001846F000E836F1A
:101D5000000E0001846F000E836F0CD00B0E00018B
:101D6000826F620EE82EFED7822FFCD700D00001D2
:101D7000834B842B000180510001835D0001815160
:101D800000018459D8A0EAD71200000E946E968202
:101D900096849382938093869384010EC16E0A0E7B
:101DA000C06E2B0EC26EC40ED56EF40EF16E200EF8
:101DB000F26EC1EC0FF0030E0001816FE80E806F30
:101DC000A3EC0EF01200496E4950D8A40BD0000EBF
:101DD000476E010E1DEC0DF0010E476E000E1DEC5E
:101DE0000DF00BD0000E476E000E1DEC0DF0010E35
:101DF000476E010E1DEC0DF000D01D06D8A01E068A
:101E000012000001805100018203F3CF84F0F4CF6F
:101E100085F00001805100018303F3500001852704
:101E20000001815100018203F3500001852784C025
:101E300080F085C081F000D0120000EE01F0350E78
:101E4000EE6AE806FDE1C20EF66E1F0EF76E000E9A
:101E5000F86E0900F5CF5BF00900F5CF5CF00900E2
:101E6000F5CF5DF0000EF86E000185EF0FF0000178
:101E700086510001885D00018951800A00018A6F46
:101E800000018751800A00018A59D8B005D088C066
:101E900086F089C087F004D086C086F087C087F0BE
:101EA0001200000186510001885D00018951800AFD
:101EB00000018A6F00018751800A00018A59D8B059
:101EC00005D086C086F087C087F004D088C086F031
:101ED00089C087F012004C6E4A044B10D8A406D07B
:101EE000010E1E6E540E1D6E010E05D0000E1E6EEC
:101EF000AA0E1D6E000E336E00D04CC035F0010EE0
:101F0000346E3550E3EC0EF01200D8EC0FF0C5EC57
:101F10000EF0010E8DEC0CF0010E8DEC0CF0010EAC
:101F20008DEC0CF097EC0DF0F28E00D0000E8DECE5
:101F30000CF0FCD751EF00F0000E476E010E1DECC7
:101F40000DF0000E476E000E1DEC0DF01306D8A02C
:101F5000140613501410D8A403D0000E346E00D011
:101F6000120013501410D8B404D013041410D8A4C1
:101F700007D0000E146E010E136E9CEC0FF000D013
:101F80001200270EC26EC28200D0C2B2FED7800EEF
:101F9000C36402D0000E01D0010E326E00D01200D8
:101FA000486E4738F00B4824496E495000D0120063
:101FB0007C0ED36E4F0E9B6E1200476E47C08BFF98
:061FC0001200020A0200FB
:020000040020DA
:08000000FFFFFFFFFFFFFFFF00
:020000040030CA
:0E000000FF081F1EFF8185FF0FC00FE00F409D
:00000001FF
