:0400000051EF00F0CC
:10000800FACF12F0FBCF13F0E9CF14F053ED00F064
:10001800D8CF01F0E8CF02F0E0CF03F0FACF04F038
:10002800FBCF05F0E9CF06F0EACF07F0E1CF08F003
:10003800E2CF09F0D9CF0AF0DACF0BF0F3CF0CF00A
:10004800F4CF0DF0F6CF0EF0F7CF0FF0F8CF10F099
:10005800F5CF11F011C0F5FF10C0F8FF0FC0F7FF82
:100068000EC0F6FF0DC0F4FF0CC0F3FF0BC0DAFFA3
:100078000AC0D9FF09C0E2FF08C0E1FF07C0EAFFD4
:1000880006C0E9FF05C0FBFF04C0FAFF03C0E0FF9C
:1000980002C0E8FF01C0D8FF1000BDEF00F0060065
:1000A800EACF15F0E1CF16F0E2CF17F0D9CF18F06C
:1000B800DACF19F0F3CF1AF0F4CF1BF0F6CF1CF01B
:1000C800F7CF1DF0F8CF1EF0F5CF1FF0F2A420D027
:1000D800040E246002D0242A0CD0000E246E09D00D
:1000E800880E05D0440E03D0220E01D0110E8B6E5F
:1000F8000DD02450000AD8B4F3D7010AD8B4F2D7E7
:10010800030AD8B4F1D7010AD8B4F0D7F29400D0D2
:100118001FC0F5FF1EC0F8FF1DC0F7FF1CC0F6FF8B
:100128001BC0F4FF1AC0F3FF19C0DAFF18C0D9FFCB
:1001380017C0E2FF16C0E1FF15C0EAFF14C0E9FFCF
:1001480013C0FBFF12C0FAFF11007C0ED36E4F0ED6
:100158009B6ED0EC00F0CFEC00F0C40ED56EF40E20
:10016800F16E200EF26EF28E000E946EFFD751EFF4
:1001780000F0236A226A216A206AA20EF66E010E36
:10018800F76E000EF86E0900F5CF24F0000EF86E39
:0C0198000001A9EF00F0120012000500A9
:020000040020DA
:08000000FFFFFFFFFFFFFFFF00
:020000040030CA
:0E000000FF081F1EFF8185FF0FC00FE00F409D
:00000001FF
