:0400000051EF00F0CC
:10000800FACF15F0FBCF16F0E9CF17F0DDED09F0C8
:10001800D8CF01F0E8CF02F0E0CF03F0FACF04F038
:10002800FBCF05F0E9CF06F0EACF07F0E1CF08F003
:10003800E2CF09F0D9CF0AF0DACF0BF0F3CF0CF00A
:10004800F4CF0DF0F6CF0EF0F7CF0FF0F8CF10F099
:10005800F5CF11F011C0F5FF10C0F8FF0FC0F7FF82
:100068000EC0F6FF0DC0F4FF0CC0F3FF0BC0DAFFA3
:100078000AC0D9FF09C0E2FF08C0E1FF07C0EAFFD4
:1000880006C0E9FF05C0FBFF04C0FAFF03C0E0FF9C
:0E00980002C0E8FF01C0D8FF10001EEF0BF001
:1010000000161711111B2B1F3300000E396E000E36
:10101000386E39BE08D0395005E1040E385CD8B0BE
:10102000E5D001D0E3D0000E3B6E000E3A6E3BBE21
:1010300008D03B5005E10A0E3A5CD8B0A8D001D0E8
:10104000A6D03A503B10D8A428D038C023F039C0DD
:1010500024F0000E266E140E256EE2EC0AF02EC06F
:1010600030F02FC031F02350302624503122D89058
:101070003A34D96E3B34DA6E3050D9263150DA2208
:10108000DECF32F0DDCF33F032C034F033C035F094
:1010900034C036F035C037F072D038C023F039C0D4
:1010A00024F0000E266E140E256EE2EC0AF02EC01F
:1010B00030F02FC031F02350302624503122D89008
:1010C0003A34D96E3B34DA6E3050D9263150DA22B8
:1010D000DECF29F0DDCF2AF034C02BF035C02CF064
:1010E000F6EC0AF029C034F02AC035F038C023F0FD
:1010F00039C024F0000E266E140E256EE2EC0AF0C4
:101100002EC030F02FC031F0235030262450312231
:10111000D8903A34D96E3B34DA6E3050D9263150FB
:10112000DA22DECF29F0DDCF2AF032C02BF033C037
:101130002CF00AEC0BF029C032F02AC033F038C092
:1011400023F039C024F0000E266E140E256EE2EC5A
:101150000AF02EC030F02FC031F02350302624503A
:101160003122D8903A34D96E3B34DA6E3050D926D9
:101170003150DA22DE503626DD50372200D03A4A8E
:101180003B2A3BBE5ED73B5002E155D700D03250E0
:101190003424306E33503520316E301E311E304ACB
:1011A000312A36503024366E37503120376E36C0F3
:1011B00023F037C024F0000E266E080E256E37ECA3
:1011C0000AF0D8903834D96E3934DA6E420ED92606
:1011D000000EDA2223C0DEFF24C0DDFF384A392AA0
:1011E00039BE21D7395002E118D700D01200000EC5
:1011F0000001D16F000ED06F0001D1BF0AD00001F5
:10120000D15106E10A0E0001D05DD8B0CFD001D097
:10121000CDD0000E0001D36F000ED26F0001D3BFFE
:101220000AD00001D35106E1040E0001D25DD8B00E
:10123000B2D001D0B0D0050E0001D225F66E100E4E
:10124000D321F76E0800F5CFC2FFC28200D0C2B230
:10125000FED7C3CF3CF0060E3D6ED8903C323D2EFB
:10126000FCD73C50C4CF3EF03F6AD8903E363F3664
:10127000D8903E363F363E26000E3F22D2C023F0A5
:10128000D3C024F0000E266E140E256EE2EC0AF098
:10129000800E406E000E416E2350402624504122A5
:1012A000D8900001D035D96E0001D135DA6E4050AA
:1012B000D9264150DA223EC0DEFF3FC0DDFF0001EB
:1012C000D2510001D311D8B407D0030E0001D219B6
:1012D0000001D311D8A42AD0D2C023F0D3C024F067
:1012E000000E266E140E256EE2EC0AF0800E3C6EA7
:1012F000000E3D6E23503C2624503D22D890000124
:10130000D035D96E0001D135DA6E3C50D9263D502A
:10131000DA22010E0001D225F66E100ED321F76EEF
:101320000800F550DE5E000EDD5A2AD0D2C023F050
:10133000D3C024F0000E266E140E256EE2EC0AF0E7
:10134000800E3C6E000E3D6E23503C2624503D2204
:10135000D8900001D035D96E0001D135DA6E3C50FD
:10136000D9263D50DA22010E0001D225F66E100E6C
:10137000D321F76E0800F550DE26000EDD2200D0E6
:101380000001D24BD32B0001D3BF55D70001D3515D
:1013900002E14AD700D00001D04BD12B0001D1BFD0
:1013A00038D70001D15102E12DD700D0800E2E6E2A
:1013B000000E2F6E05EC08F012000600EACF18F0C0
:1013C000E1CF19F0E2CF1AF0D9CF1BF0DACF1CF041
:1013D000F3CF1DF0F4CF1EF0F6CF1FF0F7CF20F0C3
:1013E000F8CF21F0F5CF22F0F2A424D04DBE1ED0CC
:1013F0004D5006E10B0E4C5CD8B002D017D000D097
:10140000000E126E010E82EC0AF0000E126E000E3B
:1014100082EC0AF053C012F0525033EC0BF040EC67
:101420000BF0000E4D6E000E4C6E00D04C4A4D2A53
:10143000F29400D022C0F5FF21C0F8FF20C0F7FFD2
:101440001FC0F6FF1EC0F4FF1DC0F3FF1CC0DAFF73
:101450001BC0D9FF1AC0E2FF19C0E1FF18C0EAFFA4
:1014600017C0E9FF16C0FBFF15C0FAFF1100000E00
:10147000286E26AE07D0256C261ED8B0262A010E6F
:10148000286E00D024AE07D0236C241ED8B0242AA6
:10149000010E281A00D0000E2A6E000E296E25506B
:1014A0002610D8B421D0010E276E05D0D89025364D
:1014B0002636272A00D026BE02D0F8D700D0D890F2
:1014C00029362A362550235C26502458D8A006D029
:1014D0002550235E2650245A298000D0D8902632E9
:1014E0002532272EECD700D02850D8B405D0296C4F
:1014F0002A1ED8B02A2A00D029C023F02AC024F0FE
:1015000000D01200136E1204D8A408D01350D8A42F
:1015100002D0010E01D0000E136E00D01350D8B4CB
:101520000DD024D00BD0020E05D0040E03D0080E2F
:1015300001D002D0526E29D0010EFCD75250010AC0
:10154000D8B4F1D7030AD8B4F0D7060AD8B4EFD785
:101550000C0AF2D71AD00AD006D0010E05D0020E1E
:1015600003D0040E01D0080E536E0FD05350010A61
:10157000D8B4F9D7030AD8B4F0D7060AD8B4EFD74D
:101580000C0AD8B4EED7EFD700D01200000E946E3C
:1015900096829684938293809386938481A602D0C8
:1015A000000E01D0010E546E010EC16E0A0EC06E07
:1015B0002B0EC26EC40ED56EF40EF16E200EF26EBE
:1015C000F28E120023502502F3CF27F0F4CF28F03B
:1015D00023502602F350282624502502F3502826B3
:1015E00027C023F028C024F000D0120029502B5C23
:1015F0002C50800A2D6E2A50800A2D58D8B005D064
:101600002BC029F02CC02AF004D029C029F02AC010
:101610002AF0120029502B5C2C50800A2D6E2A5083
:10162000800A2D58D8B005D029C029F02AC02AF048
:1016300004D02BC029F02CC02AF0120000EE42F09A
:10164000130EEE6AE806FDE1000EF86E000129EFC8
:101650000BF03BEC0BF0C6EC0AF000D0F7EC08F016
:10166000FDD751EF00F0136E1338F00B1224146EF7
:10167000145000D012007C0ED36E4F0E9B6E1200E1
:08168000126E12C08BFF120074
:020000040020DA
:08000000FFFFFFFFFFFFFFFF00
:020000040030CA
:0E000000FF081F1EFF8185FF0FC00FE00F409D
:00000001FF
