:0400000051EF00F0CC
:10000800FACF12F0FBCF13F0E9CF14F0B9ED09F0F5
:10001800D8CF01F0E8CF02F0E0CF03F0FACF04F038
:10002800FBCF05F0E9CF06F0EACF07F0E1CF08F003
:10003800E2CF09F0D9CF0AF0DACF0BF0F3CF0CF00A
:10004800F4CF0DF0F6CF0EF0F7CF0FF0F8CF10F099
:10005800F5CF11F011C0F5FF10C0F8FF0FC0F7FF82
:100068000EC0F6FF0DC0F4FF0CC0F3FF0BC0DAFFA3
:100078000AC0D9FF09C0E2FF08C0E1FF07C0EAFFD4
:1000880006C0E9FF05C0FBFF04C0FAFF03C0E0FF9C
:0E00980002C0E8FF01C0D8FF100059EF0AF0C7
:10100000001B2B1F3300000E366E000E356E36BEF1
:1010100008D0365005E1040E355CD8B0E5D001D0DB
:10102000E3D0000E386E000E376E38BE08D0385050
:1010300005E10A0E375CD8B0A8D001D0A6D0375051
:101040003810D8A428D035C020F036C021F0000ECA
:10105000236E140E226E1DEC0AF02BC02DF02CC056
:101060002EF020502D2621502E22D8903734D96EC4
:101070003834DA6E2D50D9262E50DA22DECF2FF0FA
:10108000DDCF30F02FC031F030C032F031C033F05E
:1010900032C034F072D035C020F036C021F0000EDE
:1010A000236E140E226E1DEC0AF02BC02DF02CC006
:1010B0002EF020502D2621502E22D8903734D96E74
:1010C0003834DA6E2D50D9262E50DA22DECF26F0B3
:1010D000DDCF27F031C028F032C029F031EC0AF022
:1010E00026C031F027C032F035C020F036C021F0E4
:1010F000000E236E140E226E1DEC0AF02BC02DF094
:101100002CC02EF020502D2621502E22D89037347E
:10111000D96E3834DA6E2D50D9262E50DA22DECF31
:1011200026F0DDCF27F02FC028F030C029F045ECA5
:101130000AF026C02FF027C030F035C020F036C0AE
:1011400021F0000E236E140E226E1DEC0AF02BC04F
:101150002DF02CC02EF020502D2621502E22D8907C
:101160003734D96E3834DA6E2D50D9262E50DA2223
:10117000DE503326DD50342200D0374A382A38BEBC
:101180005ED7385002E155D700D02F5031242D6E54
:10119000305032202E6E2D1E2E1E2D4A2E2A3350F8
:1011A0002D24336E34502E20346E33C020F034C0E2
:1011B00021F0000E236E080E226E6EEC09F0D8901E
:1011C0003534D96E3634DA6E3F0ED926000EDA2267
:1011D00020C0DEFF21C0DDFF354A362A36BE21D7CA
:1011E000365002E118D700D01200000E0001D16F76
:1011F000000ED06F0001D1BF0AD00001D15167E1CC
:101200000A0E0001D05DD8B062D001D060D0000ECF
:101210000001D36F000ED26F0001D3BF0AD00001CE
:10122000D35150E1040E0001D25DD8B04BD001D0B3
:1012300049D0010E0001D225F66E100ED321F76EB3
:101240000800F5CFC2FFC28200D0C2B2FED7C3CF22
:1012500039F0060E3A6ED89039323A2EFCD7395012
:10126000C4CF3BF03C6AD8903B363C36D8903B36F6
:101270003C363B26000E3C22D2C020F0D3C021F0E9
:10128000000E236E140E226E1DEC0AF0800E3D6ED1
:10129000000E3E6E20503D2621503E22D890000187
:1012A000D035D96E0001D135DA6E3D50D9263E5089
:1012B000DA223BC0DEFF3CC0DDFF0001D24BD32B66
:1012C000ABD700D00001D04BD12B94D700D0800EEB
:1012D0002B6E000E2C6E03EC08F01200000E256E33
:1012E00023AE07D0226C231ED8B0232A010E256E10
:1012F00000D021AE07D0206C211ED8B0212A010ECB
:10130000251A00D0000E276E000E266E22502310E4
:10131000D8B421D0010E246E05D0D89022362336C1
:10132000242A00D023BE02D0F8D700D0D890263689
:1013300027362250205C23502158D8A006D02250B6
:10134000205E2350215A268000D0D89023322232AA
:10135000242EECD700D02550D8B405D0266C271EFB
:10136000D8B0272A00D026C020F027C021F000D016
:1013700012000600EACF15F0E1CF16F0E2CF17F029
:10138000D9CF18F0DACF19F0F3CF1AF0F4CF1BF061
:10139000F6CF1CF0F7CF1DF0F8CF1EF0F5CF1FF001
:1013A000F2A413D04ABE0DD04A5006E11F0E495C8C
:1013B000D8B002D006D000D0000E4A6E000E496EA2
:1013C00000D0494A4A2AF29400D01FC0F5FF1EC03F
:1013D000F8FF1DC0F7FF1CC0F6FF1BC0F4FF1AC0CA
:1013E000F3FF19C0DAFF18C0D9FF17C0E2FF16C01B
:1013F000E1FF15C0EAFF14C0E9FF13C0FBFF12C0F4
:10140000FAFF1100000E946E968296849382938068
:101410009386938481A602D0000E01D0010E516EF6
:10142000010EC16E0A0EC06E2B0EC26EC40ED56EBA
:10143000F40EF16E200EF26E120020502202F3CF55
:1014400024F0F4CF25F020502302F350252621501C
:101450002202F350252624C020F025C021F000D020
:1014600012002650285C2950800A2A6E2750800AD4
:101470002A58D8B005D028C026F029C027F004D0BB
:1014800026C026F027C027F012002650285C2950DD
:10149000800A2A6E2750800A2A58D8B005D026C064
:1014A00026F027C027F004D028C026F029C027F056
:1014B000120000EE3FF0130EEE6AE806FDE1000EAA
:1014C000F86E000164EF0AF06EEC0AF002EC0AF02C
:1014D00000D0F5EC08F0FDD751EF00F07C0ED36E94
:0614E0004F0E9B6E12008E
:020000040020DA
:08000000FFFFFFFFFFFFFFFF00
:020000040030CA
:0E000000FF081F1EFF8185FF0FC00FE00F409D
:00000001FF
