:0400000051EF00F0CC
:10000800FACF1CF0FBCF1DF0E9CF1EF005ED0BF089
:10001800D8CF01F0E8CF02F0E0CF03F0FACF04F038
:10002800FBCF05F0E9CF06F0EACF07F0E1CF08F003
:10003800E2CF09F0D9CF0AF0DACF0BF0F3CF0CF00A
:10004800F4CF0DF0F6CF0EF0F7CF0FF0F8CF10F099
:10005800F5CF11F011C0F5FF10C0F8FF0FC0F7FF82
:100068000EC0F6FF0DC0F4FF0CC0F3FF0BC0DAFFA3
:100078000AC0D9FF09C0E2FF08C0E1FF07C0EAFFD4
:1000880006C0E9FF05C0FBFF04C0FAFF03C0E0FF9C
:0E00980002C0E8FF01C0D8FF100040EF0CF0DE
:10100000001E1E07071B2B1F3300000E0001D76FA9
:10101000000ED66F0001D7BF0AD00001D75106E1FC
:101020000A0E0001D65DD8B0E9D001D0E7D0000E9D
:101030000001D96F000ED86F0001D9BF0AD000019E
:10104000D95106E1040E0001D85DD8B0CCD001D052
:10105000CAD0050E0001D825F66E100ED921F76E04
:101060000800F5CFC2FFC28200D0C2B2FED7C3CF04
:1010700080F0060E0001816F0001D89080330001DE
:10108000812FFAD700018051C4CF82F00001836B19
:101090000001D890823783370001D8908237833798
:1010A00000018227000E8323D8C02AF0D9C02BF07C
:1010B000000E2D6E140E2C6EF7EC0BF0860E000158
:1010C000846F000E0001856F2A50000184272B5089
:1010D00000018523D8900001D635D96E0001D7359F
:1010E000DA6E00018451D92600018551DA2282C0CE
:1010F000DEFF83C0DDFF0001D8510001D911D8B453
:1011000007D0030E0001D8190001D911D8A430D09E
:10111000D8C02AF0D9C02BF0000E2D6E140E2C6E04
:10112000F7EC0BF0860E0001806F000E0001816F5E
:101130002A50000180272B5000018123D890000104
:10114000D635D96E0001D735DA6E00018051D92627
:1011500000018151DA22010E0001D825F66E100E31
:10116000D921F76E0800F550DE5E000EDD5A30D052
:10117000D8C02AF0D9C02BF0000E2D6E140E2C6EA4
:10118000F7EC0BF0860E0001806F000E0001816FFE
:101190002A50000180272B5000018123D8900001A4
:1011A000D635D96E0001D735DA6E00018051D926C7
:1011B00000018151DA22010E0001D825F66E100ED1
:1011C000D921F76E0800F550DE26000EDD2200D092
:1011D0000001D84BD92B0001D9BF3BD70001D95111
:1011E00002E130D700D00001D64BD72B0001D7BF8A
:1011F0001ED70001D75102E113D700D0860E356EFD
:10120000000E366E05EC09F01200000E406E000E66
:101210003F6E40BE08D0405005E1040E3F5CD8B0A0
:10122000E5D001D0E3D0000E426E000E416E42BE0A
:1012300008D0425005E10A0E415CD8B0A8D001D0D8
:10124000A6D041504210D8A428D03FC02AF040C0B8
:101250002BF0000E2D6E140E2C6EF7EC0BF035C03B
:1012600037F036C038F02A5037262B503822D89025
:101270004134D96E4234DA6E3750D9263850DA22EA
:10128000DECF39F0DDCF3AF039C03BF03AC03CF068
:101290003BC03DF03CC03EF072D03FC02AF040C0A1
:1012A0002BF0000E2D6E140E2C6EF7EC0BF035C0EB
:1012B00037F036C038F02A5037262B503822D890D5
:1012C0004134D96E4234DA6E3750D9263850DA229A
:1012D000DECF30F0DDCF31F03BC032F03CC033F038
:1012E0000BEC0CF030C03BF031C03CF03FC02AF0BA
:1012F00040C02BF0000E2D6E140E2C6EF7EC0BF090
:1013000035C037F036C038F02A5037262B503822F7
:10131000D8904134D96E4234DA6E3750D9263850DD
:10132000DA22DECF30F0DDCF31F039C032F03AC012
:1013300033F01FEC0CF030C039F031C03AF03FC050
:101340002AF040C02BF0000E2D6E140E2C6EF7EC20
:101350000BF035C037F036C038F02A5037262B5006
:101360003822D8904134D96E4234DA6E3750D926BB
:101370003850DA22DE503D26DD503E2200D0414A70
:10138000422A42BE5ED7425002E155D700D03950C2
:101390003B24376E3A503C20386E371E381E374A91
:1013A000382A3D5037243D6E3E5038203E6E3DC0B9
:1013B0002AF03EC02BF0000E2D6E080E2C6E70EC45
:1013C0000BF0D8903F34D96E4034DA6E430ED926F4
:1013D000000EDA222AC0DEFF2BC0DDFF3F4A402A82
:1013E00040BE21D7405002E118D700D0120020EEB5
:1013F00045F0DECF15F0DDCF16F0151E161E154A8E
:10140000162A43501524126E44501620136E33ECE6
:101410000CF012C018F013C019F0000E1B6E000E75
:101420001A6E19BE06D0195008E10B0E185CD8B020
:1014300004D0000E1B6E000E27D019BE12D019501A
:1014400004E10B0E185CD8A00CD019BE06D01950C0
:1014500008E13D0E185CD8B004D0000E1B6E0A0ED9
:1014600013D019BE13D0195004E13D0E185CD8A05A
:101470000DD019BE0BD0195004E1780E185CD8A01D
:1014800005D0000E1B6E280E1A6E00D04350455C2E
:101490004650800A156E4450800A1558D8B01DD0A9
:1014A000000E176E1BBE36D01B5005E11A04D8A0E3
:1014B00031D001D02FD0000E126E17508BEC0AF0F5
:1014C00054C012F0535055EC0CF062EC0CF01A06BC
:1014D000D8A01B06E7D7EFD71DD0010E176E1BBE95
:1014E00019D01B5005E11A04D8A014D001D012D095
:1014F000000E126E17508BEC0AF054C012F05350CD
:1015000055EC0CF062EC0CF01A06D8A01B06E7D7DD
:10151000EFD700D01200136E1350D8A41BD0125076
:10152000D8B40BD017D009D0020E04D0040E02D0CC
:101530003ED039D0536E68D036D05350010AD8B45B
:10154000F3D7030AD8B4F2D7060AD8B430D00C0ABD
:101550002AD05AD01304D8A41DD01250D8B40BD01E
:1015600019D009D0080E40D0010E3ED0020E3CD05A
:10157000040E3AD0F7D75450010AD8B4F3D7030A6F
:10158000D8B4F2D7060AD8B4F1D70C0AD8B4F0D739
:10159000E9D73AD01350D8A41BD01204D8B409D03C
:1015A00017D007D004D0010EC5D7BED7BFD7080EBD
:1015B000C1D75350010AD8B4FAD7030AD8B4F3D725
:1015C000060AD8B4B1D70C0AD8B4B0D7F0D71CD01B
:1015D0001304D8A419D01204D8B409D015D007D058
:1015E000C5D7C6D7BFD7C0D7546E0ED0BDD75450BD
:1015F000010AD8B4BBD7030AD8B4BAD7060AD8B4FC
:10160000B1D70C0AB1D700D012000600EACF1FF004
:10161000E1CF20F0E2CF21F0D9CF22F0DACF23F0D2
:10162000F3CF24F0F4CF25F0F6CF26F0F7CF27F054
:10163000F8CF28F0F5CF29F0F2A435D04EBE2FD048
:101640004E5004E1040E4D5CD8A029D044BE11D008
:10165000445004E1650E435CD8A00BD046BE09D0CF
:10166000465004E1650E455CD8A003D0F7EC09F0C4
:1016700000D0000E126E010E8BEC0AF0000E126EFE
:10168000000E8BEC0AF054C012F0535055EC0CF0E5
:1016900062EC0CF0000E4E6E000E4D6E00D04D4A06
:1016A0004E2AF29400D029C0F5FF28C0F8FF27C0C9
:1016B000F7FF26C0F6FF25C0F4FF24C0F3FF23C0C8
:1016C000DAFF22C0D9FF21C0E2FF20C0E1FF1FC026
:1016D000EAFF1EC0E9FF1DC0FBFF1CC0FAFF11009E
:1016E000000E2F6E2DAE07D02C6C2D1ED8B02D2ADB
:1016F000010E2F6E00D02BAE07D02A6C2B1ED8B057
:101700002B2A010E2F1A00D0000E316E000E306E03
:101710002C502D10D8B421D0010E2E6E05D0D890AB
:101720002C362D362E2A00D02DBE02D0F8D700D070
:10173000D890303631362C502A5C2D502B58D8A0FA
:1017400006D02C502A5E2D502B5A308000D0D890D5
:101750002D322C322E2EECD700D02F50D8B405D0FD
:10176000306C311ED8B0312A00D030C02AF031C0E0
:101770002BF000D01200000E946E96829684938215
:1017800093809386938481A602D0000E01D0010E2F
:10179000556E010EC16E0A0EC06E2B0EC26EC40EC7
:1017A000D56EF40EF16E200EF26E030E2B6EE80E67
:1017B0002A6EDDEC0BF0F28E1200000E2E6E000E83
:1017C0002D6E000E2E6E000E2D6E0AD00B0E2C6E9E
:1017D000620EE82EFED72C2EFCD700D02D4A2E2AE2
:1017E0002A502D5C2B502E58D8A0F0D712002A502A
:1017F0002C02F3CF2EF0F4CF2FF02A502D02F3500D
:101800002F262B502C02F3502F262EC02AF02FC04B
:101810002BF000D012003050325C3350800A346E0E
:101820003150800A3458D8B005D032C030F033C0BF
:1018300031F004D030C030F031C031F012003050FF
:10184000325C3350800A346E3150800A3458D8B03C
:1018500005D030C030F031C031F004D032C030F0AB
:1018600033C031F0120013AE05D0126C131ED8B085
:10187000132A00D012C012F013C013F000D01200CF
:1018800000EE43F0130EEE6AE806FDE1000EF86E7E
:1018900000014BEF0CF05DEC0CF0BBEC0BF000D05A
:1018A00005EC08F0FDD751EF00F0136E1338F00B84
:1018B0001224146E145000D012007C0ED36E4F0E02
:0C18C0009B6E1200126E12C08BFF120013
:020000040020DA
:08000000FFFFFFFFFFFFFFFF00
:020000040030CA
:0E000000FF081F1EFF8185FF0FC00FE00F409D
:00000001FF
