:0400000051EF00F0CC
:10000800FACF1AF0FBCF1BF0E9CF1CF005ED08F092
:10001800D8CF01F0E8CF02F0E0CF03F0FACF04F038
:10002800FBCF05F0E9CF06F0EACF07F0E1CF08F003
:10003800E2CF09F0D9CF0AF0DACF0BF0F3CF0CF00A
:10004800F4CF0DF0F6CF0EF0F7CF0FF0F8CF10F099
:10005800F5CF11F011C0F5FF10C0F8FF0FC0F7FF82
:100068000EC0F6FF0DC0F4FF0CC0F3FF0BC0DAFFA3
:100078000AC0D9FF09C0E2FF08C0E1FF07C0EAFFD4
:1000880006C0E9FF05C0FBFF04C0FAFF03C0E0FF9C
:0E00980002C0E8FF01C0D8FF1000C3EF0CF05B
:101000000036361D1D1B2B1F33000600EACF1DF0D6
:10101000E1CF1EF0E2CF1FF0D9CF20F0DACF21F0E0
:10102000F3CF22F0F4CF23F0F6CF24F0F7CF25F062
:10103000F8CF26F0F5CF27F0F2A404D14ABEFED0B7
:101040004A5004E1030E495CD8A0F8D046BE08D04F
:10105000465003E14504D8A003D022EC0DF0E2D0C5
:101060004EBE08D04E5003E14D04D8A003D030EC62
:101070000DF0D8D050BE20D0505003E14F04D8A07E
:101080001BD042BE06D0210E415C030E4258D8B0A0
:1010900008D044BE0DD0210E435C030E4458D8A0A6
:1010A00007D0000E4E6E0F0E4D6E30EC0DF0BAD024
:1010B00057508BEC0CF0B6D03EBE06D03E501EE131
:1010C000460E3D5CD8B01AD05550D8A417D0565013
:1010D000D8A404D0010E466EA40E03D0010E466EB5
:1010E0007C0E456E00D022EC0DF0000E506EA70E67
:1010F0004F6E000E39D0010E566E94D040BE06D011
:10110000405034E1460E3F5CD8B030D042BE2ED0C5
:10111000425004E1650E415CD8A028D044BE26D0E0
:10112000445004E1650E435CD8A020D03EBE1ED0E2
:101130003E5004E1470E3D5CD8A018D05550D8A4CD
:1011400015D05650D8A404D0010E466EA40E03D07C
:10115000010E466E7C0E456E00D022EC0DF0000EA6
:10116000506EA70E4F6E010E576EC5D73EBE21D0F2
:101170003E5004E1470E3D5CD8A01BD040BE19D0C4
:10118000405004E1650E3F5CD8A013D042BE0DD0A4
:10119000A40E415C010E4258D8B044BE06D0A40E45
:1011A000435C010E4458D8B004D0B5EC0BF0000EEF
:1011B000A3D73EBE2CD03E5004E1470E3D5CD8A0E4
:1011C00026D040BE24D0405004E1470E3F5CD8A05A
:1011D0001ED042BE1CD0A50E415C010E4258D8B0B4
:1011E00044BE15D0A50E435C010E4458D8A00FD0C4
:1011F00050BE05D050500BE14F04D8B008D0010EBE
:10120000506E4E0E4F6E57508BEC0CF00BD0000E04
:10121000126E010E3BEC0BF0000E126E000E3BEC5A
:101220000BF000D054C012F0535055EC0DF062ECAE
:101230000DF0000E4A6E000E496E00D0494A4A2A4F
:10124000F29400D027C0F5FF26C0F8FF25C0F7FFB5
:1012500024C0F6FF23C0F4FF22C0F3FF21C0DAFF51
:1012600020C0D9FF1FC0E2FF1EC0E1FF1DC0EAFF82
:101270001CC0E9FF1BC0FBFF1AC0FAFF1100000EE3
:101280000001876F000E866F000187BF0AD0000142
:10129000875106E1040E0001865DD8B005D101D06A
:1012A00003D1000E0001896F000E886F000189BF15
:1012B0000AD00001895106E10A0E0001885DD8B00C
:1012C000B7D001D0B5D00001885100018911D8A450
:1012D0002AD086C028F087C029F0000E2B6E140E8D
:1012E0002A6ED7EC0CF033C035F034C036F02850FD
:1012F000352629503622D89000018835D96E000154
:101300008935DA6E3550D9263650DA22DECF80F0B4
:10131000DDCF81F080C082F081C083F082C084F094
:1013200083C085F07AD086C028F087C029F0000EEF
:101330002B6E140E2A6ED7EC0CF033C035F034C08F
:1013400036F02850352629503622D89000018835AD
:10135000D96E00018935DA6E3550D9263650DA2239
:10136000DECF2EF0DDCF2FF082C030F083C031F021
:10137000EBEC0CF02EC082F02FC083F086C028F07A
:1013800087C029F0000E2B6E140E2A6ED7EC0CF0DD
:1013900033C035F034C036F0285035262950362277
:1013A000D89000018835D96E00018935DA6E355044
:1013B000D9263650DA22DECF2EF0DDCF2FF080C0D6
:1013C00030F081C031F0FFEC0CF02EC080F02FC067
:1013D00081F086C028F087C029F0000E2B6E140E15
:1013E0002A6ED7EC0CF033C035F034C036F02850FC
:1013F000352629503622D89000018835D96E000153
:101400008935DA6E3550D9263650DA22DE500001A1
:101410008427DD500001852300D00001884B892BF3
:10142000000189BF50D70001895102E145D700D0A2
:101430000001805100018225356E000181510001BB
:101440008321366E351E361E354A362A00018451F8
:1014500035240001846F0001855136200001856F1D
:1014600084C028F085C029F0000E2B6E080E2A6E6D
:1014700022EC0CF0D89000018635D96E000187353A
:10148000DA6E3D0ED926000EDA2228C0DEFF29C012
:10149000DDFF0001864B872B000187BF02D70001CB
:1014A000875102E1F7D600D01200000E0001DB6F79
:1014B000000EDA6F0001DBBF0AD00001DB5106E14C
:1014C0000A0E0001DA5DD8B0CFD001D0CDD0000E29
:1014D0000001DD6F000EDC6F0001DDBF0AD00001EE
:1014E000DD5106E1040E0001DC5DD8B0B2D001D0C0
:1014F000B0D0050E0001DC25F66E100EDD21F76E72
:101500000800F5CFC2FFC28200D0C2B2FED7C3CF5F
:1015100037F0060E386ED8903732382EFCD7375059
:10152000C4CF39F03A6AD89039363A36D89039363D
:101530003A363926000E3A22DCC028F0DDC029F008
:10154000000E2B6E140E2A6ED7EC0CF08A0E3B6E3A
:10155000000E3C6E28503B2629503C22D8900001BA
:10156000DA35D96E0001DB35DA6E3B50D9263C50B6
:10157000DA2239C0DEFF3AC0DDFF0001DC51000194
:10158000DD11D8B407D0030E0001DC190001DD1114
:10159000D8A42AD0DCC028F0DDC029F0000E2B6EC4
:1015A000140E2A6ED7EC0CF08A0E376E000E386ED1
:1015B0002850372629503822D8900001DA35D96EC4
:1015C0000001DB35DA6E3750D9263850DA22010EA9
:1015D0000001DC25F66E100EDD21F76E0800F550D7
:1015E000DE5E000EDD5A2AD0DCC028F0DDC029F016
:1015F000000E2B6E140E2A6ED7EC0CF08A0E376E8E
:10160000000E386E2850372629503822D890000115
:10161000DA35D96E0001DB35DA6E3750D92638500D
:10162000DA22010E0001DC25F66E100EDD21F76EC8
:101630000800F550DE26000EDD2200D00001DC4B54
:10164000DD2B0001DDBF55D70001DD5102E14AD796
:1016500000D00001DA4BDB2B0001DBBF38D70001E3
:10166000DB5102E12DD700D08A0E336E000E346EAE
:101670003FEC09F01200136E1350D8A41BD01204D3
:10168000D8B40BD017D009D0020E04D0040E02D06B
:101690003ED039D0536E68D036D05350010AD8B4FA
:1016A000F3D7030AD8B4F2D7060AD8B430D00C0A5C
:1016B0002AD05AD01304D8A41DD01204D8B40BD009
:1016C00019D009D0080E40D0010E3ED0020E3CD0F9
:1016D000040E3AD0F7D75450010AD8B4F3D7030A0E
:1016E000D8B4F2D7060AD8B4F1D70C0AD8B4F0D7D8
:1016F000E9D73AD01350D8A41BD01250D8B409D08F
:1017000017D007D004D0010EC5D7BED7BFD7080E5B
:10171000C1D75350010AD8B4FAD7030AD8B4F3D7C3
:10172000060AD8B4B1D70C0AD8B4B0D7F0D71CD0B9
:101730001304D8A419D01250D8B409D015D007D0AA
:10174000C5D7C6D7BFD7C0D7546E0ED0BDD754505B
:10175000010AD8B4BBD7030AD8B4BAD7060AD8B49A
:10176000B1D70C0AB1D700D0120020EE3FF0DECF87
:1017700015F0DDCF16F0151E161E154A162A3D501F
:101780001524126E3E501620136E3EEC0DF012C062
:1017900018F013C019F05850D8B40CD0000E126EC7
:1017A000010E3BEC0BF0000E126E000E3BEC0BF04A
:1017B000580647D03D503F5C4050800A156E3E5061
:1017C000800A1558D8B00FD0000E176E000E126E9A
:1017D00017503BEC0BF054C012F0535055EC0DF089
:1017E00062EC0DF00FD0010E176E000E126E175046
:1017F0003BEC0BF054C012F0535055EC0DF062EC82
:101800000DF000D019BE08D0195004E1970E185CF5
:10181000D8A002D0010E13D019BE06D019500EE187
:10182000970E185CD8B00AD019BE08D0195004E140
:10183000150E185CD8A002D0040E01D0080E586E08
:1018400000D01200000E2D6E2BAE07D02A6C2B1E7E
:10185000D8B02B2A010E2D6E00D029AE07D0286CEF
:10186000291ED8B0292A010E2D1A00D0000E2F6E85
:10187000000E2E6E2A502B10D8B421D0010E2C6EE3
:1018800005D0D8902A362B362C2A00D02BBE02D079
:10189000F8D700D0D8902E362F362A50285C2B50FF
:1018A0002958D8A006D02A50285E2B50295A2E80BD
:1018B00000D0D8902B322A322C2EECD700D02D50CD
:1018C000D8B405D02E6C2F1ED8B02F2A00D02EC031
:1018D00028F02FC029F000D01200000E946E9682DE
:1018E00096849382938093869384010EC16E0A0E30
:1018F000C06E2B0EC26EC40ED56EF40EF16E200EAD
:10190000F26E13EC0DF0030E296EE80E286EA9ECB2
:101910000CF0F28E1200146E1450D8A40BD0000EEE
:10192000126E010E3BEC0BF0010E126E000E3BEC42
:101930000BF00BD0000E126E000E3BEC0BF0010E04
:10194000126E010E3BEC0BF000D04F06D8A05006F3
:101950001200000E2C6E000E2B6E000E2C6E000E70
:101960002B6E0AD00B0E2A6E620EE82EFED72A2EA0
:10197000FCD700D02B4A2C2A28502B5C29502C58FD
:10198000D8A0F0D7120000EE3DF01B0EEE6AE8067C
:10199000FDE1CC0EF66E1A0EF76E000EF86E090021
:1019A000F5CF58F0000EF86E00014BEF0DF0285007
:1019B0002A02F3CF2CF0F4CF2DF028502B02F35055
:1019C0002D2629502A02F3502D262CC028F02DC098
:1019D00029F000D012002E50305C3150800A326E57
:1019E0002F50800A3258D8B005D030C02EF031C008
:1019F0002FF004D02EC02EF02FC02FF012002E504A
:101A0000305C3150800A326E2F50800A3258D8B084
:101A100005D02EC02EF02FC02FF004D030C02EF0F5
:101A200031C02FF01200270EC26EC28200D0C2B2A7
:101A3000FED7800EC36402D0000E01D0010E556E99
:101A400000D01200000E126E010E3BEC0BF0000EE7
:101A5000126E000E3BEC0BF04506D8A046061200B5
:101A6000010E126E010E3BEC0BF0010E126E000E19
:101A70003BEC0BF04D06D8A04E06120013AE05D07D
:101A8000126C131ED8B0132A00D012C012F013C06B
:101A900013F000D012005DEC0DF06DEC0CF000D0F6
:101AA00055EC0AF0FDD751EF00F0136E1238F00B31
:101AB0001324146E145000D012007C0ED36E4F0EFF
:0E1AC0009B6E1200126E12C08BFF1200080007
:020000040020DA
:08000000FFFFFFFFFFFFFFFF00
:020000040030CA
:0E000000FF081F1EFF8185FF0FC00FE00F409D
:00000001FF
