:0400000051EF00F0CC
:10000800FACF1AF0FBCF1BF0E9CF1CF005ED08F092
:10001800D8CF01F0E8CF02F0E0CF03F0FACF04F038
:10002800FBCF05F0E9CF06F0EACF07F0E1CF08F003
:10003800E2CF09F0D9CF0AF0DACF0BF0F3CF0CF00A
:10004800F4CF0DF0F6CF0EF0F7CF0FF0F8CF10F099
:10005800F5CF11F011C0F5FF10C0F8FF0FC0F7FF82
:100068000EC0F6FF0DC0F4FF0CC0F3FF0BC0DAFFA3
:100078000AC0D9FF09C0E2FF08C0E1FF07C0EAFFD4
:1000880006C0E9FF05C0FBFF04C0FAFF03C0E0FF9C
:0E00980002C0E8FF01C0D8FF10003FEF0EF0DD
:1010000000000015151B2B1F33000600EACF1DF052
:10101000E1CF1EF0E2CF1FF0D9CF20F0DACF21F0E0
:10102000F3CF22F0F4CF23F0F6CF24F0F7CF25F062
:10103000F8CF26F0F5CF27F0F2A46FD13ABE69D1F0
:101040003A5004E1030E395CD8A063D136BE08D013
:10105000365003E13504D8A003D0B3EC0EF04DD1E7
:101060003EBE08D03E5003E13D04D8A003D0C1EC01
:101070000EF043D140BE20D0405003E13F04D8A041
:101080001BD030BE06D0210E2F5C030E3058D8B0D6
:1010900008D032BE0DD0210E315C030E3258D8A0DC
:1010A00007D0000E3E6E0F0E3D6EC1EC0EF025D146
:1010B000535021EC0EF021D12CBE06D02C5022E151
:1010C0005F0E2B5CD8B01ED055BE1CD0555004E12D
:1010D000600E545CD8A016D05150D8A413D02BC0A9
:1010E00054F02CC055F05250D8A404D0010E366EE6
:1010F000A40E03D0010E366E900E356E00D0B3EC08
:101100000EF0FBD055BE06D0555019E15F0E545C71
:10111000D8B015D0000E406EA70E3F6E000E536E75
:10112000010E526E000E576EC80E566E010E556EB1
:101130002C0E546E000E426E010E416EDED02EBE9D
:1011400006D02E501AE15B0E2D5CD8B016D051504F
:10115000D8A413D02DC056F02EC057F05250D8A4AA
:1011600004D0010E366EC20E03D0010E366E9A0EFA
:10117000356E00D0B3EC0EF0C0D057BE06D057503D
:1011800021E15B0E565CD8B01DD032BE1BD07D0E67
:10119000315C010E3258D8A015D0000E406EA70E5B
:1011A0003F6E010E536E010E526E000E446E010E24
:1011B000436E010E556E2C0E546E010E576E2C0EA2
:1011C000566E9BD057BE06D057500FE15B0E565C53
:1011D000D8B00BD032BE06D07C0E315C010E325836
:1011E000D8B003D0E4EC0AF088D02CBE3BD02C5011
:1011F00004E1600E2B5CD8A035D02EBE33D02E502B
:1012000004E15C0E2D5CD8A02DD032BE2BD07D0E1B
:10121000315C010E3258D8A025D040BE05D04050D8
:1012200021E13F04D8B01ED0000E346E010E336EA3
:10123000010E406E4E0E3F6E535021EC0EF0010E2B
:10124000526E000E576EC80E566E010E556E2C0E65
:10125000546E000E426E000E416E000E446E000E83
:10126000436E4BD02CBE2CD02C5004E1600E2B5C76
:10127000D8A026D02EBE24D02E5004E15C0E2D5CCA
:10128000D8A01ED032BE0ED0325004E1500E315CD8
:10129000D8A008D030BE06D0305007E1780E2F5CC1
:1012A000D8B003D0E4EC0AF028D0000E126E010E84
:1012B00002EC0DF0000E126E000E02EC0DF01DD0CF
:1012C000000E126E010E02EC0DF0000E126E000EFA
:1012D00002EC0DF0000E526E000E426E000E416EDA
:1012E000000E446E000E436E000E576EC80E566E12
:1012F000010E556E2C0E546E00D050C012F04F509F
:10130000E6EC0EF0F3EC0EF0000E3A6E000E396EC5
:1013100000D0394A3A2AF29400D027C0F5FF26C0FF
:10132000F8FF25C0F7FF24C0F6FF23C0F4FF22C05A
:10133000F3FF21C0DAFF20C0D9FF1FC0E2FF1EC0AB
:10134000E1FF1DC0EAFF1CC0E9FF1BC0FBFF1AC084
:10135000FAFF1100000E0001936F000E926F000162
:1013600093BF0AD00001935106E1040E0001925D83
:10137000D8B029D101D027D1000E0001956F000E01
:10138000946F000195BF0AD00001955106E10A0E45
:101390000001945DD8B0D3D001D0D1D000019451D8
:1013A00000019511D8A431D092C080F093C081F093
:1013B000000E0001836F140E826F5AEC0EF088C08D
:1013C0008AF089C08BF00001805100018A2700015A
:1013D000815100018B23D89000019435D96E000112
:1013E0009535DA6E00018A51D92600018B51DA2237
:1013F000DECF8CF0DDCF8DF08CC08EF08DC08FF005
:101400008EC090F08FC091F08FD092C080F093C0CA
:1014100081F0000E0001836F140E826F5AEC0EF003
:1014200088C08AF089C08BF00001805100018A27B2
:101430000001815100018B23D89000019435D96EB1
:1014400000019535DA6E00018A51D92600018B51D1
:10145000DA22DECF84F0DDCF85F08EC086F08FC03B
:1014600087F074EC0EF084C08EF085C08FF092C0CF
:1014700080F093C081F0000E0001836F140E826F24
:101480005AEC0EF088C08AF089C08BF000018051C0
:1014900000018A270001815100018B23D8900001AF
:1014A0009435D96E00019535DA6E00018A51D9263E
:1014B00000018B51DA22DECF84F0DDCF85F08CC0C5
:1014C00086F08DC087F08CEC0EF084C08CF085C067
:1014D0008DF092C080F093C081F0000E0001836F08
:1014E000140E826F5AEC0EF088C08AF089C08BF01F
:1014F0000001805100018A270001815100018B23E6
:10150000D89000019435D96E00019535DA6E00014E
:101510008A51D92600018B51DA22DE500001902732
:10152000DD500001912300D00001944B952B000168
:1015300095BF34D70001955102E129D700D00001B1
:101540008C5100018E2500018A6F00018D51000130
:101550008F2100018B6F00018A1F8B1F8A4B8B2B01
:101560000001905100018A250001906F0001915106
:1015700000018B210001916F90C080F091C081F03B
:10158000000E0001836F080E826F7CEC0DF0D89086
:1015900000019235D96E00019335DA6E2B0ED926F3
:1015A000000EDA22000180C0DEFF000181C0DDFFF5
:1015B0000001924B932B000193BFDED600019351A3
:1015C00002E1D3D600D01200000E196E000E186E84
:1015D0002CBE77D02C5004E1600E2B5CD8A071D0CB
:1015E0002EBE6FD02E5004E15C0E2D5CD8A069D0C9
:1015F0002BC015F02CC016F0151E161E154A162A03
:101600002D501524126E2E501620136ECFEC0EF0B6
:1016100012C018F013C019F05850D8B40CD0000EF6
:10162000126E010E02EC0DF0000E126E000E02ECB6
:101630000DF08CD0DBD02B502D5C2E50800A156E17
:101640002C50800A1558D8B00FD0000E176E000E1F
:10165000126E175002EC0DF050C012F04F50E6EC35
:101660000EF0F3EC0EF00FD0010E176E000E126E9E
:10167000175002EC0DF050C012F04F50E6EC0EF097
:10168000F3EC0EF000D019BE08D0195004E1510E51
:10169000185CD8A002D0010E9CD019BE06D01950FB
:1016A0000EE1510E185CD8B093D019BE91D01950EC
:1016B00004E11F0E185CD8A08BD0050E8AD088D00C
:1016C00095D02CBE08D02C5005E1600E2B5CD8B014
:1016D0008DD001D08BD02CBE7ED02C5004E1600E7A
:1016E0002B5CD8A078D02EBE76D02E5004E15C0EB4
:1016F0002D5CD8A070D032BE6ED0325004E1510EB5
:10170000315CD8A068D020EE2FF0DECF15F0DDCF11
:1017100016F0151E161E154A162A31501524126E83
:1017200032501620136ECFEC0EF012C018F013C01A
:1017300019F05850D8B40CD0000E126E010E02EC05
:101740000DF0000E126E000E02EC0DF058064ED099
:101750002F50315C3250800A156E3050800A155877
:10176000D8B00FD0000E176E000E126E175002EC9C
:101770000DF050C012F04F50E6EC0EF0F3EC0EF00E
:101780000FD0010E176E000E126E175002EC0DF006
:1017900050C012F04F50E6EC0EF0F3EC0EF000D01B
:1017A00019BE06D0195003E1510E185CD8B073D79A
:1017B00019BE06D019500CE1510E185CD8B008D0F3
:1017C00019BE06D0195003E11F0E185CD8B075D7AA
:1017D0000A0E586E0BD0000E126E010E02EC0DF0C8
:1017E000000E126E000E02EC0DF000D01200000E82
:1017F0000001ED6F000EEC6F0001EDBF0AD000019B
:10180000ED5106E10A0E0001EC5DD8B0F2D001D036
:10181000F0D0000E0001EF6F000EEE6F0001EFBF81
:101820000AD00001EF5106E1040E0001EE5DD8B0D0
:10183000D5D001D0D3D0050E0001EE25F66E100EE6
:10184000EF21F76E0800F5CFC2FFC28200D0C2B20E
:10185000FED7C3CF96F0060E0001976F0001D89017
:1018600096330001972FFAD700019651C4CF98F014
:101870000001996B0001D890983799370001D890F2
:101880009837993700019827000E9923EEC080F011
:10189000EFC081F0000E0001836F140E826F5AECCE
:1018A0000EF09C0E00019A6F000E00019B6F00016C
:1018B000805100019A270001815100019B23D8909B
:1018C0000001EC35D96E0001ED35DA6E00019A5158
:1018D000D92600019B51DA2298C0DEFF99C0DDFFB6
:1018E0000001EE510001EF11D8B407D0030E000142
:1018F000EE190001EF11D8A433D0EEC080F0EFC094
:1019000081F0000E0001836F140E826F5AEC0EF00E
:101910009C0E0001966F000E0001976F0001805130
:10192000000196270001815100019723D890000102
:10193000EC35D96E0001ED35DA6E00019651D926ED
:1019400000019751DA22010E0001EE25F66E100E0D
:10195000EF21F76E0800F550DE5E000EDD5A33D041
:10196000EEC080F0EFC081F0000E0001836F140E16
:10197000826F5AEC0EF09C0E0001966F000E000173
:10198000976F0001805100019627000181510001ED
:101990009723D8900001EC35D96E0001ED35DA6E51
:1019A00000019651D92600019751DA22010E00015B
:1019B000EE25F66E100EEF21F76E0800F550DE26CC
:1019C000000EDD2200D00001EE4BEF2B0001EFBF37
:1019D00032D70001EF5102E127D700D00001EC4BD4
:1019E000ED2B0001EDBF15D70001ED5102E10AD743
:1019F00000D09C0E0001886F000E0001896FAAECD8
:101A000009F01200136E1350D8A41BD01204D8B4DE
:101A10000BD017D009D0020E04D0040E02D03ED055
:101A200039D04F6E68D036D04F50010AD8B4F3D7B2
:101A3000030AD8B4F2D7060AD8B430D00C0A2AD098
:101A40005AD01304D8A41DD01204D8B40BD019D086
:101A500009D0080E40D0010E3ED0020E3CD0040E3C
:101A60003AD0F7D75050010AD8B4F3D7030AD8B404
:101A7000F2D7060AD8B4F1D70C0AD8B4F0D7E9D710
:101A80003AD01350D8A41BD01250D8B409D017D0D4
:101A900007D004D0010EC5D7BED7BFD7080EC1D717
:101AA0004F50010AD8B4FAD7030AD8B4F3D7060ABC
:101AB000D8B4B1D70C0AD8B4B0D7F0D71CD013041F
:101AC000D8A419D01250D8B409D015D007D0C5D792
:101AD000C6D7BFD7C0D7506E0ED0BDD75050010A61
:101AE000D8B4BBD7030AD8B4BAD7060AD8B4B1D78A
:101AF0000C0AB1D700D01200000E0001856F000162
:101B000083AF09D00001826D831FD8B0832B010EF3
:101B10000001856F00D0000181AF09D00001806D08
:101B2000811FD8B0812B010E0001851B00D0000E53
:101B30000001876F000E866F000182510001831142
:101B4000D8B431D0010E0001846F07D00001D890C5
:101B5000823783370001842B00D0000183BF02D07D
:101B6000F5D700D00001D890863787370001825121
:101B70000001805D0001835100018159D8A00BD084
:101B8000000182510001805F000183510001815BEF
:101B90000001868100D00001D89083338233000198
:101BA000842FE0D700D0000185510001D8B406D0C1
:101BB0000001866D871FD8B0872B00D086C080F0CB
:101BC00087C081F000D01200000E0001816F000E6E
:101BD000806F000E0001816F000E806F0BD00B0E26
:101BE0002A6E620EE82EFED72A2EFCD700D0000106
:101BF000804B812B28500001805D295000018159C4
:101C0000D8A0EDD71200000E946E9682968493822F
:101C1000938093869384010EC16E0A0EC06E2B0EC4
:101C2000C26EC40ED56EF40EF16E200EF26EA4ECF0
:101C30000EF0030E296EE80E286EE4EC0DF0F28E25
:101C40001200146E1450D8A40BD0000E126E010EA8
:101C500002EC0DF0010E126E000E02EC0DF00BD036
:101C6000000E126E000E02EC0DF0010E126E010E4F
:101C700002EC0DF000D03F06D8A04006120000EEA6
:101C80002BF0290EEE6AE806FDE1EE0EF66E1D0E53
:101C9000F76E000EF86E00EE54F010EE05F009003D
:101CA000F5CFEEFFE550E150FAE1000EF86E0001CD
:101CB000DCEF0EF00001805100018203F3CF28F029
:101CC000F4CF29F00001805100018303F35029264D
:101CD0000001815100018203F350292628C080F0C1
:101CE00029C081F000D01200000184510001865DFE
:101CF00000018751800A2A6E00018551800A2A5806
:101D0000D8B005D086C084F087C085F004D084C0E8
:101D100084F085C085F01200000184510001865DC9
:101D200000018751800A2A6E00018551800A2A58D5
:101D3000D8B005D084C084F085C085F004D086C0BA
:101D400084F087C085F01200270EC26EC28200D0D8
:101D5000C2B2FED7800EC36402D0000E01D0010EC5
:101D6000516E00D01200000E126E010E02EC0DF04A
:101D7000000E126E000E02EC0DF03506D8A03606ED
:101D80001200010E126E010E02EC0DF0010E126E29
:101D9000000E02EC0DF03D06D8A03E06120013AE78
:101DA00005D0126C131ED8B0132A00D012C012F046
:101DB00013C013F000D01200EEEC0EF003EC0EF0A6
:101DC00000D0F7EC0BF0FDD751EF00F0136E123896
:101DD000F00B1324146E145000D012007C0ED36E3E
:101DE0004F0E9B6E1200126E12C08BFF1200C800C5
:041DF000C8000A001D
:020000040020DA
:08000000FFFFFFFFFFFFFFFF00
:020000040030CA
:0E000000FF081F1EFF8185FF0FC00FE00F409D
:00000001FF
