:0400000051EF00F0CC
:10000800FACF12F0FBCF13F0E9CF14F08BED00F02C
:10001800D8CF01F0E8CF02F0E0CF03F0FACF04F038
:10002800FBCF05F0E9CF06F0EACF07F0E1CF08F003
:10003800E2CF09F0D9CF0AF0DACF0BF0F3CF0CF00A
:10004800F4CF0DF0F6CF0EF0F7CF0FF0F8CF10F099
:10005800F5CF11F011C0F5FF10C0F8FF0FC0F7FF82
:100068000EC0F6FF0DC0F4FF0CC0F3FF0BC0DAFFA3
:100078000AC0D9FF09C0E2FF08C0E1FF07C0EAFFD4
:1000880006C0E9FF05C0FBFF04C0FAFF03C0E0FF9C
:1000980002C0E8FF01C0D8FF1000BFEF00F07C0EDF
:1000A800D36E4F0E9B6EC7EC00F0C6EC00F0020E4C
:1000B800936E000E956E010EC16E0A0EC06E2B0E69
:1000C800C26E00D0C28200D0C2B2FED7C3CF20F029
:1000D800060E216ED8902032212EFCD7C450226EF5
:1000E800236AD89022362336D890223623362050D9
:1000F8002224266E000E2320276E640EC36402D0CD
:10010800010E01D0000E8C6EDDD751EF00F0060015
:10011800EACF15F0E1CF16F0E2CF17F0D9CF18F0FB
:10012800DACF19F0F3CF1AF0F4CF1BF0F6CF1CF0AA
:10013800F7CF1DF0F8CF1EF0F5CF1FF01FC0F5FF69
:100148001EC0F8FF1DC0F7FF1CC0F6FF1BC0F4FF60
:100158001AC0F3FF19C0DAFF18C0D9FF17C0E2FFB1
:1001680016C0E1FF15C0EAFF14C0E9FF13C0FBFF8A
:1001780012C0FAFF1100276A266A256A246A00015C
:0801880053EF00F01200120019
:020000040020DA
:08000000FFFFFFFFFFFFFFFF00
:020000040030CA
:0E000000FF081F1EFF8185FF0FC00FE00F409D
:00000001FF
