:0400000051EF00F0CC
:10000800FACF1CF0FBCF1DF0E9CF1EF001ED0AF08E
:10001800D8CF01F0E8CF02F0E0CF03F0FACF04F038
:10002800FBCF05F0E9CF06F0EACF07F0E1CF08F003
:10003800E2CF09F0D9CF0AF0DACF0BF0F3CF0CF00A
:10004800F4CF0DF0F6CF0EF0F7CF0FF0F8CF10F099
:10005800F5CF11F011C0F5FF10C0F8FF0FC0F7FF82
:100068000EC0F6FF0DC0F4FF0CC0F3FF0BC0DAFFA3
:100078000AC0D9FF09C0E2FF08C0E1FF07C0EAFFD4
:1000880006C0E9FF05C0FBFF04C0FAFF03C0E0FF9C
:0E00980002C0E8FF01C0D8FF100000EF0CF01E
:10100000001E1E07071B2B1F3300000E0001876FF9
:10101000000E866F000187BF0AD00001875106E1EC
:10102000040E0001865DD8B005D101D003D1000EB9
:101030000001896F000E886F000189BF0AD000018E
:10104000895106E10A0E0001885DD8B0B7D001D001
:10105000B5D00001885100018911D8A42AD086C0DA
:101060002AF087C02BF0000E2D6E140E2C6E14EC9F
:101070000CF035C037F036C038F02A5037262B50E8
:101080003822D89000018835D96E00018935DA6E92
:101090003750D9263850DA22DECF80F0DDCF81F00C
:1010A00080C082F081C083F082C084F083C085F06C
:1010B0007AD086C02AF087C02BF0000E2D6E140E59
:1010C0002C6E14EC0CF035C037F036C038F02A50D6
:1010D00037262B503822D89000018835D96E000170
:1010E0008935DA6E3750D9263850DA22DECF30F023
:1010F000DDCF31F082C032F083C033F028EC0CF049
:1011000030C082F031C083F086C02AF087C02BF057
:10111000000E2D6E140E2C6E14EC0CF035C037F052
:1011200036C038F02A5037262B503822D89000018C
:101130008835D96E00018935DA6E3750D926385096
:10114000DA22DECF30F0DDCF31F080C032F081C066
:1011500033F03CEC0CF030C080F031C081F086C040
:101160002AF087C02BF0000E2D6E140E2C6E14EC9E
:101170000CF035C037F036C038F02A5037262B50E7
:101180003822D89000018835D96E00018935DA6E91
:101190003750D9263850DA22DE5000018427DD503E
:1011A0000001852300D00001884B892B000189BFF5
:1011B00050D70001895102E145D700D0000180518C
:1011C00000018225376E0001815100018321386EB4
:1011D000371E381E374A382A00018451372400014F
:1011E000846F0001855138200001856F84C02AF08A
:1011F00085C02BF0000E2D6E080E2C6E79EC0BF0D6
:10120000D89000018635D96E00018735DA6E3F0E21
:10121000D926000EDA222AC0DEFF2BC0DDFF000136
:10122000864B872B000187BF02D70001875102E15F
:10123000F7D600D01200000E0001DB6F000EDA6F4F
:101240000001DBBF0AD00001DB5106E10A0E0001FC
:10125000DA5DD8B0CFD001D0CDD0000E0001DD6F67
:10126000000EDC6F0001DDBF0AD00001DD5106E198
:10127000040E0001DC5DD8B0B2D001D0B0D0050EB4
:101280000001DC25F66E100EDD21F76E0800F5CFAB
:10129000C2FFC28200D0C2B2FED7C3CF39F0060E61
:1012A0003A6ED89039323A2EFCD73950C4CF3BF041
:1012B0003C6AD8903B363C36D8903B363C363B2691
:1012C000000E3C22DCC02AF0DDC02BF0000E2D6E9B
:1012D000140E2C6E14EC0CF08A0E3D6E000E3E6E59
:1012E0002A503D262B503E22D8900001DA35D96E87
:1012F0000001DB35DA6E3D50D9263E50DA223BC084
:10130000DEFF3CC0DDFF0001DC510001DD11D8B47F
:1013100007D0030E0001DC190001DD11D8A42AD08A
:10132000DCC02AF0DDC02BF0000E2D6E140E2C6EEA
:1013300014EC0CF08A0E396E000E3A6E2A503926E3
:101340002B503A22D8900001DA35D96E0001DB35F6
:10135000DA6E3950D9263A50DA22010E0001DC2526
:10136000F66E100EDD21F76E0800F550DE5E000E01
:10137000DD5A2AD0DCC02AF0DDC02BF0000E2D6E25
:10138000140E2C6E14EC0CF08A0E396E000E3A6EB0
:101390002A5039262B503A22D8900001DA35D96EDE
:1013A0000001DB35DA6E3950D9263A50DA22010EC7
:1013B0000001DC25F66E100EDD21F76E0800F550F9
:1013C000DE26000EDD2200D00001DC4BDD2B00010B
:1013D000DDBF55D70001DD5102E14AD700D0000141
:1013E000DA4BDB2B0001DBBF38D70001DB5102E118
:1013F0002DD700D08A0E356E000E366E05EC08F043
:1014000012000600EACF1FF0E1CF20F0E2CF21F07A
:10141000D9CF22F0DACF23F0F3CF24F0F4CF25F0A8
:10142000F6CF26F0F7CF27F0F8CF28F0F5CF29F048
:10143000F2A475D04ABE6FD04A5004E1030E495C55
:10144000D8A069D04EBE08D04E5003E14D04D8A0BC
:1014500003D050EC0CF053D044BE06D0F40E435CE5
:10146000010E4458D8B01DD046BE06D0F40E455CDF
:10147000010E4658D8B015D040BE06D040500EE1FF
:10148000650E3F5CD8B00AD042BE0BD0425006E198
:10149000650E415CD8B002D004D000D026EC0BF031
:1014A0002ED040BE2CD0405004E1650E3F5CD8A049
:1014B00026D042BE24D0425004E1650E415CD8A043
:1014C0001ED044BE06D0F50E435C010E4458D8B081
:1014D00008D046BE14D0F50E455C010E4658D8A083
:1014E0000ED04EBE05D04E500AE14D04D8B007D004
:1014F000010E4E6E900E4D6E50EC0CF000D052C0AE
:1015000012F0515075EC0CF082EC0CF0000E4A6EAB
:10151000000E496E00D0494A4A2AF29400D029C0F0
:10152000F5FF28C0F8FF27C0F7FF26C0F6FF25C04B
:10153000F4FF24C0F3FF23C0DAFF22C0D9FF21C08B
:10154000E2FF20C0E1FF1FC0EAFF1EC0E9FF1DC08F
:10155000FBFF1CC0FAFF1100136E1350D8A41BD060
:101560001204D8B40BD017D009D0020E04D0040E48
:1015700002D03ED039D0516E68D036D05150010AD9
:10158000D8B4F3D7030AD8B4F2D7060AD8B430D007
:101590000C0A2AD05AD01304D8A41DD01204D8B4EF
:1015A0000BD019D009D0080E40D0010E3ED0020E4B
:1015B0003CD0040E3AD0F7D75250010AD8B4F3D732
:1015C000030AD8B4F2D7060AD8B4F1D70C0AD8B4B3
:1015D000F0D7E9D73AD01350D8A41BD01250D8B4C2
:1015E00009D017D007D004D0010EC5D7BED7BFD7BA
:1015F000080EC1D75150010AD8B4FAD7030AD8B49B
:10160000F3D7060AD8B4B1D70C0AD8B4B0D7F0D7FC
:101610001CD01304D8A419D01250D8B409D015D0B6
:1016200007D0C5D7C6D7BFD7C0D7526E0ED0BDD74B
:101630005250010AD8B4BBD7030AD8B4BAD7060AA5
:10164000D8B4B1D70C0AB1D700D0120020EE41F0C7
:10165000DECF15F0DDCF16F0151E161E154A162A20
:101660003F501524126E40501620136E5EEC0CF0A5
:1016700012C017F013C018F0000E1A6E000E196E8B
:101680005450D8B40CD0000E126E010EACEC0AF01F
:10169000000E126E000EACEC0AF0540629D03F503A
:1016A000415C4250800A156E4050800A1558D8B0EF
:1016B0000FD0000E1B6E000E126E1B50ACEC0AF029
:1016C00052C012F0515075EC0CF082EC0CF00ED0C0
:1016D000010E1B6E000E126E1B50ACEC0AF052C0D5
:1016E00012F0515075EC0CF082EC0CF00A0E546EB6
:1016F0001200000E2F6E2DAE07D02C6C2D1ED8B010
:101700002D2A010E2F6E00D02BAE07D02A6C2B1E77
:10171000D8B02B2A010E2F1A00D0000E316E000E09
:10172000306E2C502D10D8B421D0010E2E6E05D065
:10173000D8902C362D362E2A00D02DBE02D0F8D7C8
:1017400000D0D890303631362C502A5C2D502B5892
:10175000D8A006D02C502A5E2D502B5A308000D0B5
:10176000D8902D322C322E2EECD700D02F50D8B45A
:1017700005D0306C311ED8B0312A00D030C02AF0EC
:1017800031C02BF000D01200000E946E9682968429
:10179000938293809386938481A602D0000E01D019
:1017A000010E536E010EC16E0A0EC06E2B0EC26E7C
:1017B000C40ED56EF40EF16E200EF26E030E2B6E7B
:1017C000E80E2A6EE6EC0BF0F28E1200000E2E6E82
:1017D000000E2D6E000E2E6E000E2D6E0AD00B0E1A
:1017E0002C6E620EE82EFED72C2EFCD700D02D4A90
:1017F0002E2A2A502D5C2B502E58D8A0F0D712003C
:1018000000EE3FF0150EEE6AE806FDE10C0EF66EF6
:10181000190EF76E000EF86E0900F5CF54F0000EA9
:10182000F86E00016BEF0CF02A502C02F3CF2EF073
:10183000F4CF2FF02A502D02F3502F262B502C02DC
:10184000F3502F262EC02AF02FC02BF000D012000C
:101850003050325C3350800A346E3150800A345834
:10186000D8B005D032C030F033C031F004D030C031
:1018700030F031C031F012003050325C3350800A09
:10188000346E3150800A3458D8B005D030C030F0B2
:1018900031C031F004D032C030F033C031F012002A
:1018A000000E126E000EACEC0AF0010E126E010E6C
:1018B000ACEC0AF04D06D8A04E06120013AE05D0CF
:1018C000126C131ED8B0132A00D012C012F013C02D
:1018D00013F000D012007DEC0CF0C4EC0BF000D043
:1018E0001BEC09F0FDD751EF00F0136E1238F00B2E
:1018F0001324146E145000D012007C0ED36E4F0EC1
:0E1900009B6E1200126E12C08BFF12000A00C6
:020000040020DA
:08000000FFFFFFFFFFFFFFFF00
:020000040030CA
:0E000000FF081F1EFF8185FF0FC00FE00F409D
:00000001FF
