:0400000051EF00F0CC
:10000800FACF4DF0FBCF4EF0E9CF4FF003ED08F0FB
:10001800D8CF39F0E8CF3AF0E0CF3BF0FACF3CF058
:10002800FBCF3DF0E9CF3EF0EACF3FF0E1CF40F023
:10003800E2CF41F0D9CF42F0DACF43F0F3CF44F02A
:10004800F4CF45F0F6CF46F0F7CF47F0F8CF48F0B9
:10005800F5CF49F049C0F5FF48C0F8FF47C0F7FFA2
:1000680046C0F6FF45C0F4FF44C0F3FF43C0DAFFC3
:1000780042C0D9FF41C0E2FF40C0E1FF3FC0EAFFF4
:100088003EC0E9FF3DC0FBFF3CC0FAFF3BC0E0FFBC
:0E0098003AC0E8FF39C0D8FF1000F4EF0DF0B9
:10100000001B2B1F33000600EACF50F0E1CF51F058
:10101000E2CF52F0D9CF53F0DACF54F0F3CF55F0FE
:10102000F4CF56F0F6CF57F0F7CF58F0F8CF59F08D
:10103000F5CF5AF0F2A4ECD114BEE6D1145004E17D
:10104000030E135CD8A0E0D126BE05D0265013E1D4
:101050002504D8B010D028BE05D028500CE12704B4
:10106000D8B009D00EBE2CD00E5005E10D04D8B07A
:1010700002D026D000D06EEC0DF026BE0ED0265049
:1010800003E12504D8A009D0000E4A6E010E17EC2A
:101090000CF02506D8A02606ABD128BE0ED02850CD
:1010A00003E12704D8A009D0000E4A6E000E17EC09
:1010B0000CF02706D8A028069BD173EC0EF098D12F
:1010C00018BE08D0185003E11704D8A003D097EC3D
:1010D0000EF08ED11ABE31D01A5003E11904D8A0F7
:1010E0002CD006BE06D0065014E1640E055CD8B0C4
:1010F00010D008BE06D008500CE1640E075CD8B0D2
:1011000008D03604D8A405D0000E1A6E030E196E4E
:1011100000D03850B9EC0DF019501A10D8A404D0F2
:10112000000E0E6E320E0D6E000E206E000E1F6E43
:10113000000E1C6E000E1B6E5BD11B041C10D8A48D
:1011400015D002BE06D0025011E1640E015CD8B089
:101150000DD0000E1A6EAA0E196E000E386E010E1A
:10116000376E000E1C6E000E1B6E78D01D041E1014
:10117000D8A410D002BE06D002500CE1640E015C6F
:10118000D8B008D01F502010D8B410D01F50201055
:10119000D8A40CD002BE06D0025016E1640E015C49
:1011A000D8B012D01F042010D8A40ED0000E1A6E92
:1011B000AA0E196E000E386E010E376E000E1C6EF0
:1011C000000E1B6E000ED4D01F042010D8A41FD018
:1011D00002BE06D002501BE1640E015CD8B017D0ED
:1011E0001D041E10D8B413D0000E1E6E010E1D6E0D
:1011F0003750D8A404D0000E0E6E5A0E03D0000E45
:101200000E6E320E0D6E00D073EC0EF0F1D01F0496
:101210002010D8B408BE25D0085004E1FB0E075CAE
:10122000D8A01FD006BE1DD0065004E1FB0E055C01
:10123000D8A017D002BE15D0025004E1650E015CA3
:10124000D8A00FD0000E1A6EAA0E196E010E386EBD
:10125000010E376E000E206E000E1F6E000E366EF1
:10126000C7D002BE06D002501BE1640E015CD8B0AC
:1012700017D01F042010D8B413D0000E1C6E010E1E
:101280001B6E3750D8A404D0010E0E6E400E03D052
:10129000000E0E6E320E0D6E00D073EC0EF0A8D064
:1012A00004BE06D0045034E1640E035CD8B030D0E4
:1012B00002BE2ED0025004E1650E015CD8A028D0F9
:1012C0001F502010D8A424D0000E206E010E1F6ED7
:1012D0003750D8A40DD00F041010D8B409D0010E87
:1012E0000E6E400E0D6E000E106E010E0F6E0DD0C4
:1012F000000E106E010E0F6E010E0E6E9A0E03D0D0
:10130000000E0E6E320E0D6E00D073EC0EF070D02B
:1013100002BE30D0025004E1650E015CD8A02AD094
:1013200004BE28D0045004E1650E035CD8A022D08E
:1013300008BE06D0C30E075C010E0858D8B008D00E
:1013400006BE18D0C30E055C010E0658D8A012D0F8
:101350001ABE05D01A500EE11904D8B00BD0010EF8
:101360001A6E540E196E000E386E010E376E010E95
:10137000366E39D002BE06D0910E015C010E0258C5
:10138000D8B008D004BE1BD0910E035C010E0458E7
:10139000D8A015D008BE06D0085011E1C80E075CD1
:1013A000D8B00DD006BE06D0065009E1C80E055CC7
:1013B000D8B005D06EEC0DF0000E376E19D0000ECF
:1013C0004A6E010E17EC0CF0000E4A6E000E17EC80
:1013D0000CF0000E376E000E1C6E000E1B6E000E21
:1013E000206E000E1F6E000E1E6E000E1D6E00D0D1
:1013F00034C04AF03350A5EC0EF0B2EC0EF0000E03
:10140000146E000E136E00D0134A142AF29400D00A
:101410005AC0F5FF59C0F8FF58C0F7FF57C0F6FF94
:1014200056C0F4FF55C0F3FF54C0DAFF53C0D9FFD4
:1014300052C0E2FF51C0E1FF50C0EAFF4FC0E9FFD8
:101440004EC0FBFF4DC0FAFF1100000E0001976F68
:10145000000E966F000197BF0AD00001975106E178
:10146000040E0001965DD8B051D101D04FD1000ECD
:101470000001956F000E946F000195BF0AD0000126
:10148000955106E10A0E0001945DD8B0D3D001D089
:10149000D1D00001945100019511D8A431D096C04B
:1014A00080F097C081F0000E0001836F140E826FF0
:1014B0000EEC0EF089C08CF08AC08DF000018051D6
:1014C00000018C270001815100018D23D89000017B
:1014D0009435D96E00019535DA6E00018C51D9260C
:1014E00000018D51DA22DECF8EF0DDCF8FF08EC07D
:1014F00090F08FC091F090C092F091C093F08FD097
:1015000096C080F097C081F0000E0001836F140E2A
:10151000826F0EEC0EF089C08CF08AC08DF0000155
:10152000805100018C270001815100018D23D8904A
:1015300000019435D96E00019535DA6E00018C51A9
:10154000D92600018D51DA22DECF84F0DDCF85F07F
:1015500090C086F091C087F028EC0EF084C090F027
:1015600085C091F096C080F097C081F0000E000118
:10157000836F140E826F0EEC0EF089C08CF08AC05F
:101580008DF00001805100018C2700018151000184
:101590008D23D89000019435D96E00019535DA6E0F
:1015A00000018C51D92600018D51DA22DECF84F062
:1015B000DDCF85F08EC086F08FC087F042EC0EF054
:1015C00084C08EF085C08FF096C080F097C081F007
:1015D000000E0001836F140E826F0EEC0EF089C0B6
:1015E0008CF08AC08DF00001805100018C27000131
:1015F000815100018D23D89000019435D96E0001EE
:101600009535DA6E00018C51D92600018D51DA2210
:10161000DE5000019227DD500001932300D000012D
:10162000944B952B000195BF34D70001955102E1F1
:1016300029D700D000018E510001902500018C6F48
:1016400000018F510001912100018D6F00018C1F5D
:101650008D1F8C4B8D2B0001925100018C250001B8
:10166000926F0001935100018D210001936F0001E1
:101670008B05D8A40CD092C080F093C081F0000EEE
:101680000001836F080E826F06EC0DF022D0D89017
:1016900000019635D96E00019735DA6EF30ED92622
:1016A000000EDA22DECF8CF0DDCF8DF092C080F01C
:1016B00093C081F0000E0001836F080E826F06EC6C
:1016C0000DF000018C510001802700018D510001B7
:1016D0008123D89000019635D96E00019735DA6ED6
:1016E000010ED926000EDA22000180C0DEFF0001C3
:1016F00081C0DDFF00D00001964B972B000197BF02
:10170000B6D60001975102E1ABD600D0120000011D
:10171000EE6F000E0001F06F000EEF6F0001F0BFE2
:101720000AD00001F05178E10A0E0001EF5DD8B057
:1017300073D001D071D0000E0001F26F000EF16F76
:101740000001F2BF0AD00001F25161E1040E000174
:10175000F15DD8B05CD001D05AD0010E0001F12566
:10176000F66E100EF221F76E0800F5CFC2FFC282AE
:1017700000D0C2B2FED7C3CF98F0060E0001996F19
:101780000001D89098330001992FFAD700019851A1
:10179000C4CF9AF000019B6B0001D8909A379B3719
:1017A0000001D8909A379B3700019A27000E9B239F
:1017B000F1C080F0F2C081F0000E0001836F140EC2
:1017C000826F0EEC0EF09E0E00019C6F000E000169
:1017D0009D6F0001805100019C2700018151000193
:1017E0009D23D8900001EF35D96E0001F035DA6EF7
:1017F00000019C51D92600019D51DA229AC0DEFFDA
:101800009BC0DDFF0001F14BF22B9AD700D0000105
:10181000EF4BF02B83D700D09E0E0001896F000E96
:1018200000018A6FEEC08BF025EC0AF012004B6EBF
:101830004B50D8A41BD04A04D8B40BD017D009D031
:10184000020E04D0040E02D03ED039D0336E68D0E0
:1018500036D03350010AD8B4F3D7030AD8B4F2D73C
:10186000060AD8B430D00C0A2AD05AD04B04D8A4D7
:101870001DD04A04D8B40BD019D009D0080E40D0DE
:10188000010E3ED0020E3CD0040E3AD0F7D73450B1
:10189000010AD8B4F3D7030AD8B4F2D7060AD8B4E9
:1018A000F1D70C0AD8B4F0D7E9D73AD04B50D8A426
:1018B0001BD04A50D8B409D017D007D004D0010E9D
:1018C000C5D7BED7BFD7080EC1D73350010AD8B489
:1018D000FAD7030AD8B4F3D7060AD8B4B1D70C0A9A
:1018E000D8B4B0D7F0D71CD04B04D8A419D04A50E4
:1018F000D8B409D015D007D0C5D7C6D7BFD7C0D761
:10190000346E0ED0BDD73450010AD8B4BBD7030A09
:10191000D8B4BAD7060AD8B4B1D70C0AB1D700D018
:101920001200015003240001806F025004200001C6
:10193000816F000E0001836F020E826F06EC0DF0C6
:1019400080C088F081C089F0075005240001806FB5
:10195000085006200001816F000E0001836F020E07
:10196000826F06EC0DF080C08AF081C08BF001C060
:101970005BF002C05CF05B1E5C1E5B4A5C2A0001EF
:1019800088515B240001F36F000189515C20000144
:10199000F46F20EE03F0DECF5BF0DDCF5CF05B1E7A
:1019A0005C1E5B4A5C2A000188515B240001F56FD4
:1019B000000189515C200001F66F20EE05F0DECFBA
:1019C0005BF0DDCF5CF05B1E5C1E5B4A5C2A0001B5
:1019D0008A515B240001F76F00018B515C200001EC
:1019E000F86F20EE07F0DECF5BF0DDCF5CF05B1E22
:1019F0005C1E5B4A5C2A00018A515B240001F96F7E
:101A000000018B515C200001FA6F1200000E0001F2
:101A1000856F000183AF09D00001826D831FD8B0AC
:101A2000832B010E0001856F00D0000181AF09D02A
:101A30000001806D811FD8B0812B010E0001851B34
:101A400000D0000E0001876F000E866F00018251EA
:101A500000018311D8B431D0010E0001846F07D08A
:101A60000001D890823783370001842B00D0000119
:101A700083BF02D0F5D700D00001D89086378737D2
:101A8000000182510001805D0001835100018159F4
:101A9000D8A00BD0000182510001805F000183516A
:101AA0000001815B0001868100D00001D890833362
:101AB00082330001842FE0D700D00001855100015E
:101AC000D8B406D00001866D871FD8B0872B00D010
:101AD00086C080F087C081F000D0120006BE0ED014
:101AE000065004E1960E055CD8A008D008BE06D0CA
:101AF00008501EE1960E075CD8B01AD002BE0BD07B
:101B0000910E015C010E0258D8A005D0000E286E7F
:101B10001E0E276E0DD004BE0BD0910E035C010E7D
:101B20000458D8A005D0000E266E1E0E256E00D0DB
:101B30001200000E0001826F000E816F000E000186
:101B4000826F000E816F0CD00B0E0001806F620E51
:101B5000E82EFED7802FFCD700D00001814B822BCE
:101B60005B500001815D5C5000018259D8A0ECD728
:101B700012004C6E4C50D8A40BD0000E4A6E010ED1
:101B800017EC0CF0010E4A6E000E17EC0CF00BD0A7
:101B9000000E4A6E000E17EC0CF0010E4A6E010E9C
:101BA00017EC0CF000D01906D8A01A061200000E8F
:101BB000946E968296849382938093869384010E8A
:101BC000C16E0A0EC06E2B0EC26EC40ED56EF40E20
:101BD000F16E200EF26E88EC0EF0030E5C6EE80ED5
:101BE0005B6E99EC0DF0120000EEF3F0080EEE6A59
:101BF000E806FDE100EE01F0380EEE6AE806FDE1D0
:101C00006C0EF66E1D0EF76E000EF86E0900F5CF25
:101C10005DF0000EF86E00015CEF0EF000018051E7
:101C200000018203F3CF5BF0F4CF5CF00001805140
:101C300000018303F3505C260001815100018203FF
:101C4000F3505C265BC080F05CC081F000D01200D5
:101C5000000184510001865D00018751800A000166
:101C6000886F00018551800A00018859D8B005D0DD
:101C700086C084F087C085F004D084C084F085C01D
:101C800085F01200000184510001865D000187513A
:101C9000800A0001886F00018551800A000188597F
:101CA000D8B005D084C084F085C085F004D086C04B
:101CB00084F087C085F01200ADEC0EF0D7EC0DF08B
:101CC000010E87EC0BF0010E87EC0BF0010E87EC98
:101CD0000BF091EC0CF0F28E00D0000E87EC0BF0C4
:101CE000FCD751EF00F0000E4A6E010E17EC0CF01D
:101CF000000E4A6E000E17EC0CF00D06D8A00E0672
:101D00000D500E10D8A403D0000E376E00D0120074
:101D1000270EC26EC28200D0C2B2FED7800EC3644C
:101D200002D0000E01D0010E356E00D01200010E5F
:101D30004A6E010E17EC0CF0010E4A6E000E17EC05
:101D40000CF01706D8A0180612004B6E4A38F00B9C
:101D50004B244C6E4C5000D012007C0ED36E4F0EB4
:0E1D60009B6E12004A6E4AC08BFF12000A00F2
:020000040020DA
:08000000FFFFFFFFFFFFFFFF00
:020000040030CA
:0E000000FF081F1EFF8185FF0FC00FE00F409D
:00000001FF
