:0400000051EF00F0CC
:10000800FACF1AF0FBCF1BF0E9CF1CF005ED08F092
:10001800D8CF01F0E8CF02F0E0CF03F0FACF04F038
:10002800FBCF05F0E9CF06F0EACF07F0E1CF08F003
:10003800E2CF09F0D9CF0AF0DACF0BF0F3CF0CF00A
:10004800F4CF0DF0F6CF0EF0F7CF0FF0F8CF10F099
:10005800F5CF11F011C0F5FF10C0F8FF0FC0F7FF82
:100068000EC0F6FF0DC0F4FF0CC0F3FF0BC0DAFFA3
:100078000AC0D9FF09C0E2FF08C0E1FF07C0EAFFD4
:1000880006C0E9FF05C0FBFF04C0FAFF03C0E0FF9C
:0E00980002C0E8FF01C0D8FF1000D1EF0CF04D
:10100000001A1A23231B2B1F33000600EACF1DF002
:10101000E1CF1EF0E2CF1FF0D9CF20F0DACF21F0E0
:10102000F3CF22F0F4CF23F0F6CF24F0F7CF25F062
:10103000F8CF26F0F5CF27F0F2A412D144BE0CD1A0
:10104000445004E1030E435CD8A006D140BE08D052
:10105000405003E13F04D8A003D050EC0DF0F0D095
:1010600048BE08D0485003E14704D8A003D05EEC46
:101070000DF0E6D04ABE20D04A5003E14904D8A082
:101080001BD03CBE06D0210E3B5C030E3C58D8B0B2
:1010900008D03EBE0DD0210E3D5C030E3E58D8A0B8
:1010A00007D0000E486E0F0E476E5EEC0DF0C8D0F4
:1010B0005150B3EC0CF0C4D038BE22D0385004E10B
:1010C000470E375CD8A01CD03ABE1AD03A5004E183
:1010D000470E395CD8A014D03CBE06D03C5010E17D
:1010E000FA0E3B5CD8B00CD03EBE06D03E5008E1B4
:1010F000FA0E3D5CD8B004D0DDEC0BF0000E62D0EF
:1011000038BE06D0385021E1D20E375CD8B01DD0A1
:101110004F50D8A41AD05050D8A404D0010E406E1D
:10112000B80E03D0010E406E900E3F6E00D050EC12
:101130000DF0000E4A6EA70E496E000E516E72D071
:10114000000E536EC80E526E7BD03ABE06D03A5097
:1011500022E1B40E395CD8B01ED038BE1CD0385055
:1011600004E1B50E375CD8A016D04F50D8A413D0E8
:1011700039C052F03AC053F05050D8A404D0010EF8
:10118000406EB80E03D0010E406E900E3F6E00D040
:1011900050EC0DF055D053BE06D0535015E1820EE1
:1011A000525CD8B011D03EBE0FD02D0E3D5C010E6A
:1011B0003E58D8A009D0000E4A6EA70E496E010E07
:1011C000516E010E506E3CD038BE2FD0385004E125
:1011D0005B0E375CD8A029D03ABE27D03A5004E144
:1011E0005B0E395CD8A021D03CBE06D07D0E3B5CA6
:1011F000010E3C58D8B008D03EBE17D07D0E3D5CE5
:10120000010E3E58D8A011D04ABE05D04A500DE17B
:101210004904D8B00AD0010E4A6E4E0E496E5150A4
:10122000B3EC0CF0010E506E8BD7000E126E010E57
:1012300063EC0BF0000E126E000E63EC0BF000D0AE
:101240004EC012F04D5083EC0DF090EC0DF0000EFE
:10125000446E000E436E00D0434A442AF29400D0FC
:1012600027C0F5FF26C0F8FF25C0F7FF24C0F6FF12
:1012700023C0F4FF22C0F3FF21C0DAFF20C0D9FF52
:101280001FC0E2FF1EC0E1FF1DC0EAFF1CC0E9FF56
:101290001BC0FBFF1AC0FAFF1100000E0001876F90
:1012A000000E866F000187BF0AD00001875106E15A
:1012B000040E0001865DD8B005D101D003D1000E27
:1012C0000001896F000E886F000189BF0AD00001FC
:1012D000895106E10A0E0001885DD8B0B7D001D06F
:1012E000B5D00001885100018911D8A42AD086C048
:1012F00028F087C029F0000E2B6E140E2A6E05EC24
:101300000DF033C035F034C036F028503526295062
:101310003622D89000018835D96E00018935DA6E01
:101320003550D9263650DA22DECF80F0DDCF81F07D
:1013300080C082F081C083F082C084F083C085F0D9
:101340007AD086C028F087C029F0000E2B6E140ECC
:101350002A6E05EC0DF033C035F034C036F028505D
:10136000352629503622D89000018835D96E0001E3
:101370008935DA6E3550D9263650DA22DECF2EF096
:10138000DDCF2FF082C030F083C031F019EC0DF0CA
:101390002EC082F02FC083F086C028F087C029F0CD
:1013A000000E2B6E140E2A6E05EC0DF033C035F0D6
:1013B00034C036F02850352629503622D890000106
:1013C0008835D96E00018935DA6E3550D926365008
:1013D000DA22DECF2EF0DDCF2FF080C030F081C0DA
:1013E00031F02DEC0DF02EC080F02FC081F086C0C2
:1013F00028F087C029F0000E2B6E140E2A6E05EC23
:101400000DF033C035F034C036F028503526295061
:101410003622D89000018835D96E00018935DA6E00
:101420003550D9263650DA22DE5000018427DD50AF
:101430000001852300D00001884B892B000189BF62
:1014400050D70001895102E145D700D000018051F9
:1014500000018225356E0001815100018321366E25
:10146000351E361E354A362A0001845135240001C6
:10147000846F0001855136200001856F84C028F0FB
:1014800085C029F0000E2B6E080E2A6E4AEC0CF077
:10149000D89000018635D96E00018735DA6E370E97
:1014A000D926000EDA2228C0DEFF29C0DDFF0001A8
:1014B000864B872B000187BF02D70001875102E1CD
:1014C000F7D600D01200000E0001E16F000EE06FB1
:1014D0000001E1BF0AD00001E15106E10A0E00015E
:1014E000E05DD8B0E9D001D0E7D0000E0001E36F95
:1014F000000EE26F0001E3BF0AD00001E35106E1F4
:10150000040E0001E25DD8B0CCD001D0CAD0050EE7
:101510000001E225F66E100EE321F76E0800F5CF0C
:10152000C2FFC28200D0C2B2FED7C3CF8AF0060E7D
:1015300000018B6F0001D8908A3300018B2FFAD7FE
:1015400000018A51C4CF8CF000018D6B0001D8904E
:101550008C378D370001D8908C378D3700018C2760
:10156000000E8D23E2C028F0E3C029F0000E2B6EA0
:10157000140E2A6E05EC0DF0900E00018E6F000E19
:1015800000018F6F285000018E27295000018F2302
:10159000D8900001E035D96E0001E135DA6E000126
:1015A0008E51D92600018F51DA228CC0DEFF8DC00A
:1015B000DDFF0001E2510001E311D8B407D0030EB2
:1015C0000001E2190001E311D8A430D0E2C028F0F4
:1015D000E3C029F0000E2B6E140E2A6E05EC0DF000
:1015E000900E00018A6F000E00018B6F28500001E1
:1015F0008A27295000018B23D8900001E035D96E4D
:101600000001E135DA6E00018A51D92600018B51C3
:10161000DA22010E0001E225F66E100EE321F76ECC
:101620000800F550DE5E000EDD5A30D0E2C028F032
:10163000E3C029F0000E2B6E140E2A6E05EC0DF09F
:10164000900E00018A6F000E00018B6F2850000180
:101650008A27295000018B23D8900001E035D96EEC
:101660000001E135DA6E00018A51D92600018B5163
:10167000DA22010E0001E225F66E100EE321F76E6C
:101680000800F550DE26000EDD2200D00001E24BFE
:10169000E32B0001E3BF3BD70001E35102E130D768
:1016A00000D00001E04BE12B0001E1BF1ED700019B
:1016B000E15102E113D700D0900E336E000E346E6C
:1016C0004DEC09F01200136E1350D8A41BD0120475
:1016D000D8B40BD017D009D0020E04D0040E02D01B
:1016E0003ED039D04D6E68D036D04D50010AD8B4B6
:1016F000F3D7030AD8B4F2D7060AD8B430D00C0A0C
:101700002AD05AD01304D8A41DD01204D8B40BD0B8
:1017100019D009D0080E40D0010E3ED0020E3CD0A8
:10172000040E3AD0F7D74E50010AD8B4F3D7030AC3
:10173000D8B4F2D7060AD8B4F1D70C0AD8B4F0D787
:10174000E9D73AD01350D8A41BD01250D8B409D03E
:1017500017D007D004D0010EC5D7BED7BFD7080E0B
:10176000C1D74D50010AD8B4FAD7030AD8B4F3D779
:10177000060AD8B4B1D70C0AD8B4B0D7F0D71CD069
:101780001304D8A419D01250D8B409D015D007D05A
:10179000C5D7C6D7BFD7C0D74E6E0ED0BDD74E5017
:1017A000010AD8B4BBD7030AD8B4BAD7060AD8B44A
:1017B000B1D70C0AB1D700D0120020EE39F0DECF3D
:1017C00015F0DDCF16F0151E161E154A162A3750D5
:1017D0001524126E38501620136E6CEC0DF012C0EA
:1017E00018F013C019F05450D8B40CD0000E126E7B
:1017F000010E63EC0BF0000E126E000E63EC0BF0AA
:10180000540647D03750395C3A50800A156E38502C
:10181000800A1558D8B00FD0000E176E000E126E49
:10182000175063EC0BF04EC012F04D5083EC0DF0EE
:1018300090EC0DF00FD0010E176E000E126E1750C7
:1018400063EC0BF04EC012F04D5083EC0DF090ECB9
:101850000DF000D019BE08D0195004E15B0E185CE1
:10186000D8A002D0010E13D019BE06D019500EE137
:101870005B0E185CD8B00AD019BE08D0195004E12C
:10188000150E185CD8A002D0020E01D0030E546EC3
:1018900000D01200000E2D6E2BAE07D02A6C2B1E2E
:1018A000D8B02B2A010E2D6E00D029AE07D0286C9F
:1018B000291ED8B0292A010E2D1A00D0000E2F6E35
:1018C000000E2E6E2A502B10D8B421D0010E2C6E93
:1018D00005D0D8902A362B362C2A00D02BBE02D029
:1018E000F8D700D0D8902E362F362A50285C2B50AF
:1018F0002958D8A006D02A50285E2B50295A2E806D
:1019000000D0D8902B322A322C2EECD700D02D507C
:10191000D8B405D02E6C2F1ED8B02F2A00D02EC0E0
:1019200028F02FC029F000D01200000E946E96828D
:1019300096849382938093869384010EC16E0A0EDF
:10194000C06E2B0EC26EC40ED56EF40EF16E200E5C
:10195000F26E41EC0DF0030E296EE80E286EEBECF2
:101960000CF0F28E1200146E1450D8A40BD0000E9E
:10197000126E010E63EC0BF0010E126E000E63ECA2
:101980000BF00BD0000E126E000E63EC0BF0010E8C
:10199000126E010E63EC0BF000D04906D8A04A0687
:1019A000120000EE37F01B0EEE6AE806FDE1280E8D
:1019B000F66E1B0EF76E000EF86E0900F5CF52F0B2
:1019C0000900F5CF53F00900F5CF54F0000EF86E82
:1019D000000179EF0DF0000E2C6E000E2B6E000E44
:1019E0002C6E000E2B6E0AD00B0E2A6E620EE82EA5
:1019F000FED72A2EFCD700D02B4A2C2A28502B5C4D
:101A000029502C58D8A0F0D7120028502A02F3CF22
:101A10002CF0F4CF2DF028502B02F3502D26295016
:101A20002A02F3502D262CC028F02DC029F000D01A
:101A300012002E50305C3150800A326E2F50800AD6
:101A40003258D8B005D030C02EF031C02FF004D0BD
:101A50002EC02EF02FC02FF012002E50305C3150CF
:101A6000800A326E2F50800A3258D8B005D02EC06E
:101A70002EF02FC02FF004D030C02EF031C02FF048
:101A80001200270EC26EC28200D0C2B2FED7800EF4
:101A9000C36402D0000E01D0010E4F6E00D01200C0
:101AA000000E126E010E63EC0BF0000E126E000EB3
:101AB00063EC0BF03F06D8A040061200010E126E38
:101AC000010E63EC0BF0010E126E000E63EC0BF0D6
:101AD0004706D8A04806120013AE05D0126C131E9C
:101AE000D8B0132A00D012C012F013C013F000D0E7
:101AF00012008BEC0DF095EC0CF000D063EC0AF0CA
:101B0000FDD751EF00F0136E1238F00B1324146E52
:101B1000145000D012007C0ED36E4F0E9B6E12003C
:0C1B2000126E12C08BFF1200C800030000
:020000040020DA
:08000000FFFFFFFFFFFFFFFF00
:020000040030CA
:0E000000FF081F1EFF8185FF0FC00FE00F409D
:00000001FF
